:100000000C94D8060C941F070C941F070C941F0720
:100010000C941F070C941F070C941F070C941F07C8
:100020000C941F070C941F070C9464270C9433281E
:100030000C94891A0C941F070C941F070C941F072B
:100040000C941F070C941F070C941F070C941F0798
:100050000C941F070C94FD1A0C941F070C941F0797
:100060000C941F070C941F070C941F070C941F0778
:100070000C941F070C941F070C941F070C941F0768
:100080000C941F070C941F070C941F070C941F0758
:100090000C941F070C941F070C941F070C941F0748
:1000A0000C941F070C941F070C941F076C096E0912
:1000B0007909700972097409760978097B097D0943
:1000C0007F098A09810983098509870989098C09BA
:1000D000E40FE40F1610161054107210D811D81136
:1000E000B410D81157115711C811D811D811D11106
:1000F0006411641164116411641164116411641158
:100100006411641164116411641164116411641147
:10011000751183118A1191119B11691269127B1259
:100120007B1272127B127B127B1269126912771298
:100130007B127B127712A028C728BF29C728BF29A6
:1001400013293629BF298D299C290A0025303136EB
:1001500062003A200025303258000A722F632030A6
:100160003132333435363738394142434445460A13
:10017000000000000000000000000000000000007F
:100180000000000000000000000000000029001432
:10019000001A00080015001700000000001C0018DD
:1001A000000C00120013002A002B000400160007A8
:1001B0000009000A00000000000B000D000E000FF7
:1001C0000033003400E1001D001B0006001900058B
:1001D0000000000000110010003600370038002831
:1001E0000000000000E200DB5C00002800000000CE
:1001F000002C000000DC5CE00000000000000000BB
:1002000000000000000000000000000000000000EE
:1002100000000000000000000035021E021F022046
:1002200002210222020000000023022402250226ED
:100230000227024C004C003A003B003C003D003ECF
:1002400000000000003F002D022E022F023002317C
:1002500002E1004000410042004300440000000071
:1002600000450032026402AA00A900AE00000000AE
:10027000000000000000004C00000000004C0000E6
:10028000000000000000000000000000000000006E
:10029000000000000000000000000000000000005E
:1002A000000000000035001E001F00200021002279
:1002B0000000000000230024002500260027004C39
:1002C000004C003A003B003C003D003E00000000B6
:1002D000003F002D002E002F003000310040004173
:1002E000004200430044004500000000003200646A
:1002F000005000510052004F0000000000010001BA
:10030000004A0001000000000001004D00AA00A901
:1003100000000000000100010001000100010001D7
:1003200000000000000100010001000100010001C7
:10033000003A003B003C003D003E003F0000000052
:10034000004000410042004300440045000100001D
:100350005C0100010001000100000000000100013B
:10036000000100010001004C000100010001001D1E
:100370005C1E5C01000000000001000100010001A2
:100380000001000100010001000100010001000165
:1003900000000000000100010001004A0000000010
:1003A0000044454255473A20656E61626C65642E93
:1003B0000A000A002530325820006B6579626F61AF
:1003C00072645F7265706F72743A20000A002530A3
:1003D0003258006B6579626F6172645F7365745F38
:1003E0006C65643A20004F6E6573686F743A2074D0
:1003F000696D656F75740A0064656C5F6B65795F24
:100400006269743A2063616E27742064656C3A20D7
:10041000253032580A006164645F6B65795F6269F8
:10042000743A2063616E2774206164643A20253039
:1004300032580A00290A002575002F002575005D35
:100440002800256400200025640020002564002089
:10045000002564007C0025303258006D6F7573658F
:100460006B6579205B62746E7C78207920762068D9
:100470005D287265702F61636C293A205B006D6B9B
:100480005F776865656C5F74696D655F746F5F6DDC
:100490006178203D2025640A006D6B5F7768656593
:1004A0006C5F6D61785F7370656564203D202564C5
:1004B0000A006D6B5F74696D655F746F5F6D617865
:1004C000203D2025640A006D6B5F6D61785F73705D
:1004D000656564203D2025640A006D6B5F696E745C
:1004E000657276616C203D2025640A006D6B5F6447
:1004F000656C6179203D2025640A006D6B5F77682B
:1005000065656C5F74696D655F746F5F6D617820A0
:100510003D2025640A006D6B5F776865656C5F6DD3
:1005200061785F7370656564203D2025640A006D05
:100530006B5F74696D655F746F5F6D6178203D20DE
:1005400025640A006D6B5F6D61785F73706565642B
:10055000203D2025640A006D6B5F696E74657276BC
:10056000616C203D2025640A006D6B5F64656C61E1
:1005700079203D2025640A000A00257500363A20BE
:10058000776865656C5F74696D655F746F5F6D61D9
:10059000783A20000A00257500353A2077686565AD
:1005A0006C5F6D61785F73706565643A20000A0066
:1005B000257500343A2074696D655F746F5F6D61F5
:1005C000783A20000A00257500333A206D61785F83
:1005D00073706565643A20000A00257500323A2080
:1005E000696E74657276616C286D73293A20000A11
:1005F00000257500313A2064656C6179282A313014
:100600006D73293A20000A092D2056616C756573B7
:10061000202D0A004D3E004D25643E20003F007312
:1006200065742064656661756C740A00433E200041
:1006300077686572652064656C74613A20637572D1
:10064000736F723D25642C20776865656C3D256469
:100650000A53656520687474703A2F2F656E2E7783
:10066000696B6970656469612E6F72672F77696B5A
:10067000692F4D6F7573655F6B6579730A000A09A1
:100680002D204D6F7573656B6579202D0A45534399
:100690002F713A09717569740A313A0964656C61A0
:1006A00079282A31306D73290A323A09696E7465E6
:1006B0007276616C286D73290A333A096D61785F2F
:1006C00073706565640A343A0974696D655F746FA7
:1006D0005F6D61780A353A09776865656C5F6D61B1
:1006E000785F73706565640A363A09776865656C8A
:1006F0005F74696D655F746F5F6D61780A0A703A47
:10070000097072696E742076616C7565730A643A5B
:10071000097365742064656661756C74730A75701D
:100720003A092B310A646F776E3A092D310A7067E6
:1007300075703A092B31300A7067646F776E3A0929
:100740002D31300A0A7370656564203D2064656C44
:100750007461202A206D61785F7370656564202A5A
:100760002028726570656174202F2074696D655F43
:10077000746F5F6D6178290A003F004D3E20004391
:100780003E20004C25640A0074696D65725F7265D5
:100790006164333228293A202530346C580A006BC2
:1007A00065796D61705F636F6E6669672E6E6B72DF
:1007B0006F3A2025580A006B6579626F6172645F39
:1007C00069646C653A2025580A006B6579626F612F
:1007D00072645F70726F746F636F6C3A2025580A91
:1007E00000686F73745F6B6579626F6172645F6CD0
:1007F00065647328293A2025580A000A092D2053D8
:100800007461747573202D0A004743433A20352ED6
:10081000342E30204156522D4C4942433A20322E3C
:10082000302E30204156525F415243483A20617683
:1008300072350A004F5054494F4E533A204C55469A
:1008400041204D4F5553454B455920455854524131
:100850004B455920434F4E534F4C4520434F4D4D30
:10086000414E44204E4B524F20343039360A00421C
:1008700055494C443A2022323031392D30342D3212
:10088000372D31353A31393A313722202831353A4E
:1008900031393A31372041707220323720323031CD
:1008A00039290A005649443A2030784645454428BB
:1008B000536F75746870617744657369676E29203A
:1008C0005049443A203078363036302863656E74AB
:1008D000726F6D65726529205645523A2030783026
:1008E0003030310A00444553433A20712E6D2E6B4F
:1008F0002E206B6579626F617264206669726D7714
:1009000061726520666F722063656E74726F6D65CB
:1009100072650A000A092D2056657273696F6E2090
:100920002D0A000A092D20436F6E736F6C65202D10
:100930000A4553432F713A09717569740A6D3A0972
:100940006D6F7573656B65790A000A092D204D611D
:10095000676963202D0A443A094465627567204D32
:1009600065737361676520546F67676C650A583AF1
:10097000094D6174726978204465627567204D6F16
:10098000646520546F67676C65202D2053686F770E
:10099000206B65797072657373657320696E206D65
:1009A000617472697820677269640A4B3A094B6511
:1009B00079626F61726420446562756720546F6765
:1009C000676C65202D2053686F77206B6579707296
:1009D000657373207265706F72740A4D3A094465CD
:1009E000627567204D6F75736520546F67676C651E
:1009F0000A563A0956657273696F6E0A533A09537B
:100A000074617475730A433A094163746976617459
:100A10006520436F6E736F6C65204D6F64650A4689
:100A2000312D4631303A0953776974636820746F09
:100A3000204C6179657220302D39202846313020D4
:100A40003D204C30290A302D393A095377697463B7
:100A50006820746F204C6179657220302D390A4509
:100A600053433A0953776974636820746F204C616B
:100A700079657220302028616C7465726E617465CE
:100A8000206B65792031290A47524156453A09536E
:100A9000776974636820746F204C617965722030C7
:100AA0002028616C7465726E617465206B657920B5
:100AB00032290A50415553453A094A756D702074E0
:100AC0006F20426F6F746C6F61646572202852658D
:100AD000736574290A4E3A094E4B524F20546F6782
:100AE000676C650A003F004E4B524F3A206F6666B6
:100AF0000A004E4B524F3A206F6E0A000A6D6F7516
:100B000073653A206F66660A000A6D6F7573653A01
:100B1000206F6E0A000A6B6579626F6172643A2019
:100B20006F66660A000A6B6579626F6172643A20CB
:100B30006F6E0A000A6D61747269783A206F66669A
:100B40000A000A6D61747269783A206F6E0A000AB1
:100B500064656275673A206F66660A000A646562BA
:100B600075673A206F6E0A000A0A4A756D70696EE1
:100B70006720746F20626F6F746C6F616465722E92
:100B80002E2E2000433E20005B735D004B65796292
:100B90006F6172642073746172742E0A005B575D1A
:100BA000005B535D005B525D005B445D005B435D39
:100BB000000403300000001603630065006E00743B
:100BC0000072006F006D0065007200650000001E7D
:100BD0000353006F007500740068007000610077B7
:100BE00000440065007300690067006E00000004A7
:100BF00003090409028D00050100A0FA09040000A0
:100C00000103010100092111010001224000070533
:100C1000810308000A0904010001030102000921FF
:100C200011010001224D000705820308000A090492
:100C30000200010300000009211101000122360019
:100C40000705830308000A090403000203000000EB
:100C5000092111010001222200070584032000015F
:100C6000070504032000010904040001030000003B
:100C70000921110100012239000705850320000127
:100C80001201100100000008EDFE60600100010289
:100C9000030105010906A101050719E029E715006F
:100CA0002501950875018102050819012905950599
:100CB000750191029501750391010507190029F746
:100CC0001500250195F875018102C00631FF0974F0
:100CD000A1010975150026FF0095207508810209FC
:100CE00076150026FF00952075089102C0050109C0
:100CF00080A10185021601002603001A81002A83C3
:100D000000751095018100C0050C0901A101850342
:100D1000160100269C021A01002A9C0275109501FA
:100D20008100C005010902A1010901A100050919FD
:100D300001290515002501950575018102950175AB
:100D40000381010501093009311581257F9502755F
:100D500008810609381581257F95017508810605EA
:100D60000C0A38021581257F950175088106C0C0DF
:100D700005010906A101050719E029E7150025016C
:100D80009508750181029501750881010508190111
:100D900029059505750191029501750391010507D6
:100DA000190029FF150026FF00950675088100C06F
:100DB00011241FBECFEFDAE0DEBFCDBF04B603FEC5
:100DC00027C08091470290914802A0914902B091BA
:100DD0004A028730904BA740B04BD1F410924702A3
:100DE000109248021092490210924A0214BE84B72F
:100DF000877F84BF0FB6F894A895809160008861C2
:100E000080936000109260000FBEE0E0F8E3099567
:100E100011E0A0E0B1E0E8ECF4E502C005900D922D
:100E2000A633B107D9F722E0A6E3B1E001C01D92D5
:100E3000A734B207E1F70E9486240C94622A0C942E
:100E40000000FF93EF93E0913601F0913701309766
:100E500009F00995EF91FF910895FC01859180308B
:100E600011F0EFDFFBCF0895FF27E0E230E247FF0C
:100E70000CC0419597FF09C0EDE260957095809593
:100E80009095611D711D811D911D27FF02C0219547
:100E900030E350E2AA27660F771F881F991FAA1F09
:100EA000A41710F0A41B63955A95A9F7AA3008F06F
:100EB000A95FA05DAF93F39561157105810591055B
:100EC00041F7ED3211F4EF93F395F21718F43F93D5
:100ED000F395FBCF8F91B5DFFA95E1F70895E9918E
:100EE000F9918591803021F0853219F0AADFF9CF90
:100EF000089520E0E89455915532C1F3503311F430
:100F0000689455915A3348F4505390F3220F022EAF
:100F1000220F220F200D250FF4CF0EF42195899179
:100F20009991533619F3533729F1533559F1BC01CF
:100F300088279927E8945C3621F4899199916894DF
:100F40005591543639F446EF7EF077FF0DC08FEFA0
:100F50009FEF0AC055374AE039F0583540E121F09B
:100F6000523642E009F00895FF93EF937DDFEF9151
:100F7000FF91B7CFFF93EF93FC0181918030B9F3DC
:100F800060DFFBCFFF93EF9368DFF1CFDF93CF9369
:100F9000CDB7DEB72596A3DFCF91DF9108950895F1
:100FA0000C94CF070C94480ACF93DF93CDB7DEB7EC
:100FB0002B970FB6F894DEBF0FBECDBF1092CC00BA
:100FC0001092CD0088E18093C90086E08093CA002A
:100FD00083E78093CE00FE0131968BE0DF011D9206
:100FE0008A95E9F7CE010C96DF0140E050E0BA01A6
:100FF0002091C80027FD0AC04F5F5F4F6F4F7F4FA2
:10100000413127E252076105710590F32091CE002E
:101010002D93A817B90761F78B85803E91F4A8E35B
:10102000B1E09E01255F3F4F818140E8849FC00170
:1010300011244081842B8D939D933296E217F30700
:1010400099F70E944A0A81E02B960FB6F894DEBF0A
:101050000FBECDBFDF91CF910895E82FF0E0EE0FE6
:10106000FF1FE85CFE4F808191810895CF92DF924F
:10107000EF92FF920F931F93CF93DF938AE591E056
:101080000E942D0788E3E82E81E0F82EC0E0D0E032
:1010900095E5C92E91E0D92E0CE411E0DF93CF93B2
:1010A000DF92CF920E94C60782E591E00E942D0751
:1010B000F701819191917F010E944D199F938F9328
:1010C0001F930F930E94C6078AE491E00E942D07A8
:1010D00021968DB79EB708960FB6F8949EBF0FBEA7
:1010E0008DBFC530D105D1F6DF91CF911F910F9102
:1010F000FF90EF90DF90CF9008951092CC00109267
:10110000CD0088E18093C90086E08093CA000895ED
:10111000519A599A80B3806380BB81B3806381BB4D
:1011200008950E94D0070E947D080C9488080C94B2
:10113000BC080895CF93FB018C3D2CE5920751F03C
:101140008D3D2CE5920749F08B3D9C4589F4C28189
:1011500081E005C0C28182E002C0C28183E0CC236D
:1011600021F00E94BD16C0E004C00E94DE1601C03E
:10117000C1E08C2FCF910895089581E008950C94DB
:101180009A080E9455122FE78AE196E0215080408C
:101190009040E1F700C000000C94231BFF920F93D6
:1011A0001F93CF93DF938C01FC01C081D18180918B
:1011B0006801811113C08281882349F0CE010E9409
:1011C000B217F82E682FCE010E945B1704C0CE0123
:1011D0000E948617F82EBE018F2D04C0CE010E94FA
:1011E000B217BE010E94520AEC01B8010E94BF086A
:1011F000882309F446C1B801CE010E94B10C8823AE
:1012000009F43FC1C531FCE5DF0739F50E94A91893
:10121000982FF801828120910001309101018823EB
:1012200079F09A7A81E009F480E08093420191118B
:1012300002C069E201C065E3C9010E94151A0AC033
:1012400080914201811102C069E201C065E3C901D8
:101250000E94201A0E94EC1814C1C6318CE5D807F0
:1012600008F082C0C130ECE5DE0779F4F801828134
:10127000882309F406C18091FF0181608093FF01FA
:1012800081EA93E00E942D07FCC0C230FCE5DF0735
:1012900008F452C0F8018281882309F455C00E94E5
:1012A0007A19811102C00E9460190E948D1990E084
:1012B0009093390280933802FE01E350FC45E231FD
:1012C000F10530F4EA5AFF4F809138020C94122A4B
:1012D00080913802816027C0826025C0846023C06D
:1012E000806121C080621FC080641DC080681BC0F7
:1012F0008460886018C08E7F16C08D7F14C08B7F7D
:1013000012C08F7E10C08F7D0EC08F7B0CC08F7778
:101310000AC08B7F877F07C087FB222720F991E0D7
:10132000922790FB87F980933802809138020E94BF
:1013300091190E945512A5C0C115DC4569F081E0E4
:101340008093470180934801C801DF91CF911F919D
:101350000F91FF900C94BD08F8018281882309F455
:1013600090C00E94C1088DC0C63DECE5DE0759F56E
:10137000F8018281882361F0109248010E94BB1A13
:10138000909346018093450180E20E94A10F79C0AD
:1013900080914801882321F080E20E94A80F71C04B
:1013A00080914501909146010E94D31A883C910595
:1013B00098F780E20E94A80F88E20E94C70E88E298
:1013C0000E94750F5EC0C73DFCE5DF0708F044C012
:1013D000C43D8CE5D80719F5F8018281882351F0C6
:1013E000109247010E94BB1A9093440180934301DD
:1013F00082E0CBCF8091470181110FC080914301E2
:10140000909144010E94D31A883C910530F486E201
:101410000E94C70E86E20E94750F82E0BECFC53DD6
:10142000DC4509F08CCFF80182818111A5CF809134
:1014300048018111B1CF80914501909146010E94F0
:10144000D31A883C910508F0A7CF87E20E94C70E07
:1014500087E20E94750FA0CFC93DFCE5DF0731F49C
:10146000F8018281882369F080E009C0CA3DDC452B
:1014700009F065CFF8018281882319F082E00E948B
:101480002C2580E0DF91CF911F910F91FF9008955F
:101490000C9491080C9497080C94990880E090E0C3
:1014A0000895089526E4829FC0011124FC012EE0D6
:1014B000729FE00DF11D1124E60FF11DEE0FFF1FCD
:1014C000EF58FE4F859194910895880F991FFC0164
:1014D000EE54FC4F859194910895CF93DF930E9431
:1014E000520A0E94110CEC018115904508F041C090
:1014F000C11580E4D80708F01CC1C83ED10510F51D
:10150000C03ED10508F089C1C83AD10578F4C53A82
:10151000D10508F09EC0C130D10509F47EC108F4A0
:1015200035C1C430D10508F078C130C1CD3BD105FB
:1015300008F49AC0C03CD10508F428C1CE01805CF3
:101540009109E9C0C11590E2D90758F4C11521E00D
:10155000D20708F062C1C03FD10508F417C1D065B9
:101560005CC1C11580E3D80708F0D9C0CE019F70D7
:10157000D2C0C11595E5D90708F044C0C11524E5CE
:10158000D20708F0EDC0C11582E5D80710F5C115E6
:1015900091E5D90708F0D0C0CE0174E09695879503
:1015A0007A95E1F7282F23703C2F337081E090E08B
:1015B00002C0880F991F3A95E2F79C68922BCF7072
:1015C000C695C69520E2C29FE0011124C82BD92BF5
:1015D00024C19E01237033278C2F86958695C115D3
:1015E000D34508F0AEC0C1E0D0E002C0CC0FDD1F93
:1015F0002A95E2F720E2829FC0011124C82BD92B43
:10160000DC680BC1C11529E5D20780F4C11588E556
:10161000D80708F0AAC0C11596E5D90708F0B6C0EA
:10162000CF71DD27DC2FCC27D062F7C0CE01C115EA
:101630002AE5D20708F49EC090568115904208F022
:10164000A5C08D2F8F710E948D0CDD27D0628F7108
:101650009BC0C53AD10509F49CC0C63AD10509F032
:101660009BC0C2E8D0E4D9C0C83AD10509F497C0FC
:10167000C93AD10509F496C0CA3AD10509F495C012
:10168000CB3AD10509F494C0CC3AD10509F493C002
:10169000CB3BD10509F492C0CC3BD10509F491C0F4
:1016A000CD3AD10509F490C0C03BD10509F48FC0F3
:1016B000CE3AD10509F48EC0CF3AD10509F48DC0D8
:1016C000C13BD10509F48CC0C23BD10509F48BC0E4
:1016D000C33BD10509F48AC0C43BD10509F489C0D4
:1016E000C53BD10509F488C0C63BD10509F487C0C4
:1016F000C73BD10509F486C0C83BD10509F485C0B4
:10170000C93BD10509F484C0CA3BD10509F483C0A3
:10171000C0E0D4E482C00E94650AEC017EC0CE0124
:101720009927D3FF03C0EC01D86C77C0EC01D06CD3
:1017300074C0DF70D06A71C0DC2FCC27C16FD06A53
:101740006CC0C1E0D0E002C0CC0FDD1F2A95E2F7EB
:1017500020E2829FC0011124C82BD92BDA685DC01A
:10176000DC2FCC27C46FD06A58C0DC2FCC27C06FC9
:10177000D06A53C024E0969587952A95E1F78F703B
:10178000CF70C06ED0E0D06AD82B47C0C0E0D0E0A8
:1017900044C0C1E8D0E441C0C3E8D0E43EC0C2EEDA
:1017A000D4E43BC0C9EED4E438C0CAEED4E435C0BA
:1017B000C5EBD4E432C0C6EBD4E42FC0C3EBD4E411
:1017C0002CC0C4EBD4E429C0C7EBD4E426C0CCECD5
:1017D000D4E423C0CDECD4E420C0C3E8D5E41DC0DC
:1017E000CAE8D5E41AC0C2E9D5E417C0C4E9D5E413
:1017F00014C0C1E2D6E411C0C3E2D6E40EC0C4E214
:10180000D6E40BC0C5E2D6E408C0C6E2D6E405C003
:10181000C7E2D6E402C0CAE2D6E4CE01DF91CF919E
:1018200008958238910549F1B0F48133910509F4A6
:1018300059C048F48932910509F44FC08A329105A4
:1018400009F455C008958533910509F441C08933E1
:10185000910599F00895833E910531F138F4803E69
:10186000910591F0823E9105A9F00895863E91057B
:1018700001F1873E910539F108952091380220FD4C
:101880003BC021FD39C008958091380280FF34C0EB
:1018900089E341C08091380282FF30C080913802D4
:1018A00084FD2EC083EE37C08091380282FD26C0B1
:1018B000F5CF8091380283FF25C08091380284FDE6
:1018C0001FC087EE28C08091380283FD1BC0F5CF72
:1018D0008091380285FD18C019C08091380285FDBD
:1018E00015C012C08091380286FD12C013C08091CD
:1018F000380286FD0FC00CC080EE0DC082EE0BC01A
:1019000080E009C086EE07C089E205C085E303C018
:101910008AE201C081E390E008959091380292FF3D
:101920000DC0282F2871283019F4877F846006C0E5
:10193000282F2471243011F48B7F886093FF0DC011
:10194000282F2871283119F4877E846106C0282F3A
:101950002471243111F48B7E886194FD877E089573
:1019600008950F931F93CF93FB012281211102C091
:10197000C1E041C08C01C0915601C11125C0863122
:101980009C45B1F70E94B00C81E0809356010E9403
:10199000BB1A909355018093540110924901109203
:1019A0004B0110924A0110924D0110924C0110927D
:1019B0004F0110924E01109251011092500110925D
:1019C00053011092520117C080915401909155011A
:1019D0000E94D31A8C32914058F690914901E92F18
:1019E000F0E0EE0FFF1FE65BFE4F118300839F5F69
:1019F00090934901C0E08C2FCF911F910F910895D2
:101A000090935C0180935B010895E0915B01F091FC
:101A10005C01309721F00190F081E02D099480E085
:101A20000895EF92FF920F931F93CF93DF93E0916E
:101A30005B01F0915C013097B1F18C010280F38180
:101A4000E02D09958091FF0182FF2DC080FF04C029
:101A50008AEB93E00E942D07E80110E284EBE82E68
:101A600083E0F82E8091FF0180FF0BC088811F92D8
:101A70008F93FF92EF920E94C6070F900F900F90E6
:101A80000F90115021961111EDCF8091FF0180FF31
:101A90000AC082EB93E0DF91CF911F910F91FF90ED
:101AA000EF900C942D07DF91CF911F910F91FF9034
:101AB000EF900895E0915B01F0915C01309721F087
:101AC0000480F581E02D0994089520915901309109
:101AD0005A012817390771F090935A0180935901E0
:101AE000E0915B01F0915C01309721F00680F78175
:101AF000E02D09940895209157013091580128173D
:101B0000390771F09093580180935701E0915B0180
:101B1000F0915C01309721F00084F185E02D09946B
:101B2000089508950C94910D81E008950E94B21AD1
:101B300085B7806885BF85B7806885BF0E94D2075A
:101B40000C94471BCF93C82F8091FF0182FF1EC0CA
:101B500080FF04C083ED93E00E942D078091FF0178
:101B600080FF0CC01F92CF938EEC93E09F938F93D6
:101B70000E94C6070F900F900F900F908091FF0169
:101B800080FF04C08CEC93E00E942D078C2FCF9136
:101B90000C944C0A5F926F927F928F929F92AF92B9
:101BA000BF92CF92DF92EF92FF920F931F93CF934A
:101BB000DF93CDB7DEB72A970FB6F894DEBF0FBE1E
:101BC000CDBF0E94D4070E94940D811111C08FEFE8
:101BD00089838A831B820E94BB1A8160782F9D8330
:101BE0008C8349815A816B818D810E94870E56C0FA
:101BF0009EE5692E91E0792E00E010E08824839420
:101C0000912C502E802F0E942D086C01F301A19081
:101C1000B1903F01A826B926A114B10431F40F5F99
:101C20001F4F0530110569F7D2CF8091FF0181FD6B
:101C30000E94360880E090E07401082E02C0EE0C8D
:101C4000FF1C0A94E2F795012E213F21232B09F175
:101C50008E835F82CE20DF2081E0CD2809F480E0F2
:101C600088870E94BB1A8160782F9A8789874E8166
:101C70005F8168858A850E94870E000F111FF80119
:101C8000E25AFE4F80819181E826F926F182E082B6
:101C900005C001968E30910579F6C1CF0E945C1D7A
:101CA0000E94050D90915D018917D9F00E94050DE4
:101CB00080935D012A960FB6F894DEBF0FBECDBFAC
:101CC000DF91CF911F910F91FF90EF90DF90CF9018
:101CD000BF90AF909F908F907F906F905F900C948B
:101CE000A20D2A960FB6F894DEBF0FBECDBFDF91CE
:101CF000CF911F910F91FF90EF90DF90CF90BF9009
:101D0000AF909F908F907F906F905F900895CF934A
:101D1000DF93CDB7DEB72B970FB6F894DEBF0FBEBB
:101D2000CDBF4F83588769877A878B87DE011196ED
:101D300086E0FD0111928A95E9F785E0FE0137966C
:101D400001900D928A95E1F70E944C18882319F0B2
:101D500082E00E9487180E941F1881110E94E518D6
:101D600049815A816B817C818D819E810E942215DF
:101D70002B960FB6F894DEBF0FBECDBFDF91CF918B
:101D80000895FC01808191810E94F1170895CF93FD
:101D9000882309F4A8C0C82F8CEF8C0F813A68F40F
:101DA0008C2F0E94AC2081119EC06C2F809100016D
:101DB000909101010E94151A0CC080E28C0F8830AE
:101DC00058F4C77081E001C0880FCA95EAF70E94F5
:101DD000AC18CF910C94EC188BE58C0F833078F411
:101DE000C53A29F0C63A31F083E890E005C081E8B1
:101DF00090E002C082E890E0CF910C94650D88E5F8
:101E00008C0F853108F06FC0C83A61F1C93A69F1A9
:101E1000CA3A71F1CB3A79F1CC3A81F1CB3B89F1F5
:101E2000CC3B91F1CD3A99F1C03BA1F1CE3AA9F169
:101E3000CF3AB1F1C13BB9F1C23BC1F1C33BC9F1EA
:101E4000C43BD1F1C53BD9F1C63BE1F1C73BE9F158
:101E5000C83BF1F1C93BF9F1CA3B09F43FC080E04E
:101E600090E03EC082EE90E03BC089EE90E038C04A
:101E70008AEE90E035C085EB90E032C086EB90E0D2
:101E80002FC083EB90E02CC084EB90E029C087EB5F
:101E900090E026C08CEC90E023C08DEC90E020C058
:101EA00083E891E01DC08AE891E01AC082E991E0E0
:101EB00017C084E991E014C081E292E011C083E28E
:101EC00092E00EC084E292E00BC085E292E008C08E
:101ED00086E292E005C087E292E002C08AE292E0E8
:101EE000CF910C947B0DCF910895882349F1682FF1
:101EF0008CEF860F813A38F48091000190910101B6
:101F00000E94201A0CC080E2860F883050F467705F
:101F100081E001C0880F6A95EAF70E94B2180C941C
:101F2000EC188BE5860F833020F480E090E00C9471
:101F3000650D685A653120F480E090E00C947B0DCB
:101F40000895882321F00E94AC180C94EC18089591
:101F5000882321F00E94B2180C94EC1808958F92F7
:101F60009F92AF92BF92DF92EF92FF920F931F93D7
:101F7000CF93DF937C01D62FC72FFC0105810295FB
:101F80000F70128111110E94C9180E94A218882393
:101F900079F0112369F080E28D0F883048F082E0FB
:101FA0000E9487180E94A21891E0D82ED92601C05D
:101FB000D12CBC2EB2948FE0B8228B2D90E0FC0186
:101FC000E859FF4F0C94122A8C2F807FCF70882302
:101FD00011F0C295C07F112399F0CC2309F4C3C13D
:101FE00080E28D0F883010F0D11104C08C2F0E9438
:101FF000AC1803C08C2F0E94BC180E94EC18B3C10F
:102000008D2F0E94750FCC2309F4D2C180E28D0F71
:10201000883010F0D11104C08C2F0E94B21803C078
:102020008C2F0E94C2180E94EC18C2C18C2F807F96
:10203000CF70803211F0C295C07FDD2319F0D1300E
:10204000C9F022C0112371F0002341F0013031F4B6
:102050000E9433198C2B0E94DC18AAC10E943319EC
:102060008C2B3AC1002319F0013009F4A1C10E9460
:10207000E51818C0112321F0063008F099C10EC0F0
:10208000053008F095C10EC0112351F0002331F046
:10209000F701858180FF67C18F7085838C2F1CC1FC
:1020A000011172C18C2F1EC18C2F8695869583706D
:1020B00019F0813061F07CC1112321F08D2F9C2F0C
:1020C000937002C080E090E00E94650D7EC11123F4
:1020D00021F08D2F9C2F937002C080E090E00E9431
:1020E0007B0D73C11123F9F0D53F51F0D63F71F04C
:1020F000D43FA9F4809132029091330281600BC0E9
:102100008091320290913302826005C08091320248
:1021100090913302846090933302809332028D2F2A
:102120000E94E21B1EC0D53F51F0D63F71F0D43F54
:10213000A9F480913202909133028E7F0BC080917E
:102140003202909133028D7F05C0809132029091CE
:1021500033028B7F90933302809332028D2F0E9443
:102160004A1C0E94CF1C31C18C2F837009F04CC0D7
:10217000111127C12D2F229526952770220F220F8E
:102180006D2F6F70862F90E0A0E0B0E04C015D01F4
:10219000022E04C0880C991CAA1CBB1C0A94D2F7FE
:1021A000D4FF12C08FE090E0A0E0B0E004C0880F40
:1021B000991FAA1FBB1F2A95D2F7BC01CD016095BC
:1021C00070958095909503C060E070E0CB01C69556
:1021D000C695C370C23051F080F4682979298A29E4
:1021E0009B29C13071F00E947116EBC068297929D2
:1021F0008A299B290E948316E4C00E947116C5019A
:10220000B4010E945F16DDC0112319F08C2F81707C
:1022100001C08695882309F4D4C02D2F22952695D8
:102220002770220F220F6D2F6F70862F90E0A0E095
:10223000B0E04C015D01022E04C0880C991CAA1C60
:10224000BB1C0A94D2F7D4FF12C08FE090E0A0E04C
:10225000B0E004C0880F991FAA1FBB1F2A95D2F7B0
:10226000BC01CD01609570958095909503C060E0AC
:1022700070E0CB01C695C695C370C23051F080F4B2
:10228000682979298A299B29C13071F00E94361763
:1022900098C0682979298A299B290E94481791C0EA
:1022A0000E943617C501B4010E9424178AC08D2FE1
:1022B00090E0FC01E05EF109E531F10508F04FC066
:1022C000E858FF4F0C94122ADF708C2F8F71112366
:1022D00031F00E94BD168D2F0E94A10F69C00E948F
:1022E000DE168D2F0E94A80F63C0112341F0053028
:1022F00008F05EC08C2F8F710E94031759C0063002
:1023000008F056C0F7CF112339F08C2F8F710E943F
:10231000BD164EC01123C9F38C2F8F710E94DE169B
:1023200047C0112329F08C2F8F710E94A81640C03E
:102330000E94A3163DC0112349F0CF718C2F0E943B
:10234000BD1663E08C2F0E94771832C081E00E9496
:102350008718023068F182E00E94871829C0112393
:1023600031F0002391F28D2F0E94C70E21C000236F
:1023700099F2D93349F4FFEF23EF81E0F150204087
:102380008040E1F700C000008D2F0E94750F10C043
:102390004C2F4F706D2FC7010E944E0A0E94D0151E
:1023A00014C04C2F4F706D2FC7010E94510A0DC0F1
:1023B00098E0B91631F0B91640F086EF8B0D8230F7
:1023C00020F40E94050D0E944C0ADD20E1F00E94DD
:1023D000481880FD18C0F70112820E9442180E941E
:1023E000BD16C7010E940F120E944218DF91CF91C3
:1023F0001F910F91FF90EF90DF90BF90AF909F9053
:102400008F900C94DE16DF91CF911F910F91FF906A
:10241000EF90DF90BF90AF909F908F9008950F93B3
:102420001F93CF93DF93EC01988189812B813C81AD
:10243000232B31F08F3F31F481E09F3F19F403C02B
:1024400081E001C080E080FD13C0CE010E94CE0873
:10245000882371F0688179818A810E94FC178C0140
:102460000E945A170E944D16B801CE010E94AF0F6C
:10247000DF91CF911F910F9108950E94C9180E947A
:10248000D91880910001909101010E942B1A0E949D
:10249000EC180E94F31D0E94CF1C80E090E00E9487
:1024A000650D80E090E00C947B0D0E94B9180C94AF
:1024B0003D120E94F117E92FE295EF704E2F50E088
:1024C000FA013297EE30F105B0F4E357FF4F0C9468
:1024D000122A803F91F018F4803E68F40EC0843FC9
:1024E00051F40BC0803E48F0813F29F406C093FBB5
:1024F000882780F9089580E0089581E00895CF93BA
:10250000DF9300D000D01F92CDB7DEB70F900F90B1
:102510000F900F900F90DF91CF910895CF93DF939D
:1025200000D000D000D0CDB7DEB726960FB6F89415
:10253000DEBF0FBECDBFDF91CF9108951F93CF9324
:10254000DF93C091690116E080916A01C81799F084
:10255000D0E01C9FF0011D9FF00D1124E559FE4FA6
:102560004081518162817381848195810E948E12A4
:102570002196C770E9CFDF91CF911F9108954091C7
:102580009B0150919C0160919D0170919E018091F1
:102590009F019091A0010C948E12CF938091A00185
:1025A00082958F7009F05FC080919D01882309F4A6
:1025B0005AC080916901B0916A0170919B01A0910C
:1025C0009C0140919E0150919F0191E07F3F09F055
:1025D00090E0692FC6E08B1709F445C041155105FD
:1025E00021F0AF3F21F020E003C021E001C0262F01
:1025F00090E020FD35C0C89FF001C99FF00D112467
:10260000E559FE4F21812A132BC02081271328C0B2
:102610002281211125C0238134812417350710F42C
:1026200021503109241B350B283C3105C8F4209179
:10263000A0012F7020612093A00126E0289FF001C7
:10264000299FF00D1124E059FE4F80818F70806129
:1026500080838BE991E00E940F12CF910C949E121F
:1026600001968770B8CFCF910895AF92BF92CF9265
:10267000DF92EF92FF920F931F93CF93DF93CDB72B
:10268000DEB761970FB6F894DEBF0FBECDBF8C01E9
:1026900085E0F801DE011D9601900D928A95E1F723
:1026A000D8014C9111965C9111971296EC90309153
:1026B0009B0160919C0180919E0190919F010097E8
:1026C00031F06F3F31F421E03F3F19F403C021E0C6
:1026D00001C020E0B22FB170BB2E20FD60C1F80117
:1026E000C380D480A0909D01AA2009F4EEC020915F
:1026F000A001C816D90628F0D601A81BB90BCD0138
:1027000004C0809590958C0D9D1DFF24F394883C0A
:10271000910580F0F12C207F09F09CC07C2DD98A96
:10272000C88A6E2D89890E947F128BE991E00E94F0
:102730000F122DC1822F807F09F054C0561314C090
:10274000431312C0FE2CE1100FC02F7020612093A4
:10275000A0010E94BF128BE991E00E940F128091AC
:10276000A001F80185835CC1CD2831F05F3F31F4D1
:1027700081E04F3F19F403C081E001C080E080FD9B
:1027800003C081E08E2502C080E090E0F82FF17058
:10279000FF2E80FF1CC08091690120916A0136E004
:1027A000821709F41AC190E0389FF001399FF00DAB
:1027B0001124E559FE4F6181561306C0608146130E
:1027C00003C06281E61203C001968770E9CFFE2C38
:1027D000EE2009F425C18091A00181608093A001C1
:1027E000F12C1EC1561309C0431307C0E11005C0E8
:1027F0008091A001F8018583A4C04D875E878D85F7
:102800009E850E945912882379F1EE2069F120916A
:10281000A001822F82958F7090E0029774F08091D2
:102820009B0190919C0198878F831986DB86CA86CD
:102830002C87CE0107960E940F1286E0F801ABE9C3
:10284000B1E001900D928A95E1F70E94CD120E94AD
:10285000BF120DC0561771F04D875E878D859E851E
:102860000E94591281111AC0C8010E940F12FF2440
:10287000F394D6C04313F0CFE110EECF8091A001C6
:10288000F8018583C8010E940F1286E0EBE9F1E0B0
:10289000DF011D928A95E9F7FA2CC2C0EE2021F3E0
:1028A0002091A001822F82958F7090E002972CF2E8
:1028B00080919B0190919C019A8389831B82DD8288
:1028C000CC822E83CE010196B6CFC816D90628F049
:1028D000F601E81BF90BCF0104C0809590958C0D93
:1028E0009D1D883C910548F0F12C7C2DD98AC88A21
:1028F0006E2D89890E947F124AC0FE2CEE2009F4B9
:10290000B3CF561333C0431331C02091A00120FD33
:1029100024C0822F82958F70482F50E041155105B9
:10292000E1F0D80115962C9315974F30510549F0D9
:102930008F5F982F9295907F822F8F70892B15969D
:102940008C93C8010E940F1286E0F801ABE9B1E058
:1029500001900D928A95E1F73DC086E0F801ABE960
:10296000B1E001900D928A95E1F75AC04D875E87DC
:102970008D859E850E94591281115FCF8091A001A3
:1029800081608093A001C8010E940F1249C0EBE949
:10299000F1E086E0DF011D928A95E9F71BC0EE2089
:1029A00009F462CF4D875E878D859E850E945912FE
:1029B000F82E882309F458CF86E0F801ABE9B1E09E
:1029C00001900D928A95E1F78BE991E00E94C10E8A
:1029D0000E94CD120E94BF1223C04D875E878D8555
:1029E0009E850E94F117292F22952F70223028F4FE
:1029F0009F7039F0811105C00BC0243028F49F70FE
:102A000049F4805E883020F0C8010E940F12BF2C6C
:102A1000FB2C06C0D80115969C91907F91F7F8CFBA
:102A20008F2D61960FB6F894DEBF0FBECDBFDF913C
:102A3000CF911F910F91FF90EF90DF90CF90BF90BB
:102A4000AF9008951F93CF93DF93CDB7DEB72C9748
:102A50000FB6F894DEBF0FBECDBF4F83588769878E
:102A60007A878B879C87CE0107960E94351388232F
:102A7000D1F09F8188852A853B85232B31F08F3FBC
:102A800031F481E09F3F19F403C081E001C080E090
:102A900080FD47C04F81588569857A858B859C85E7
:102AA0000E948E123EC086E0FE013796DE0111962E
:102AB00001900D928A95E1F7FF81E8856A857B8513
:102AC0006115710531F0EF3F31F481E0FF3F19F4FA
:102AD00003C081E001C080E080FD23C020916A0135
:102AE00030E0C9010196877099274091690150E053
:102AF00084179507F1F1F983EA837D836C8396E06F
:102B0000929FD001939FB00D1124A559BE4FFE0195
:102B1000319601900D929A95E1F780936A010E9497
:102B20009E1216E08091690190916A01891771F1F6
:102B3000189FC001112485599E4F0E943513882388
:102B400029F1E09169011E9FF0011124E559FE4F22
:102B50004081518162817381848195810E948E12AE
:102B60008091690190E001968770992780936901AF
:102B7000D9CF0E94551210926A0110926901EBE9B7
:102B8000F1E086E0DF011D928A95E9F72C960FB6F9
:102B9000F894DEBF0FBECDBFDF91CF911F91089596
:102BA000EF92FF920F931F93CF93DF938C01892BAA
:102BB00009F46CC0F12CEE24E394E8012196F801AD
:102BC0008491843740F4843008F051C0813081F022
:102BD000823019F15BC0853709F444C0A8F19CE745
:102BE000980F903708F052C08F770E94750F41C040
:102BF0000E5F1F4FFE01849190E2980F983050F4C1
:102C00008770FE2D01C0FF0F8A95EAF78F2F0E9473
:102C1000CC1814C00E94C70E2DC00E5F1F4FFE01BE
:102C2000849190E2980F983060F48770FE2D01C077
:102C3000FF0F8A95EAF78F2F0E94D2180E94EC1896
:102C400019C00E94750F16C00E5F1F4FFE01C49180
:102C5000CC2381F08FEC97E00197F1F700C00000E2
:102C6000C150F6CF0E5F1F4FFE01F49003C00E94CB
:102C7000C70E8E018F2D882309F49FCFEFECF7E06C
:102C80003197F1F700C000008150F5CFDF91CF916F
:102C90001F910F91FF90EF900895089508950C945F
:102CA0004E160E944F166093D2017093D301809309
:102CB000D4019093D5010C943D120C9451160F93AE
:102CC0001F930091D2011091D3012091D401309132
:102CD000D501602B712B822B932B1F910F910C949C
:102CE00051160F931F930091D2011091D30120919F
:102CF000D4013091D50160237123822393231F9146
:102D00000F910C9451160F931F930091D2011091C3
:102D1000D3012091D4013091D501602771278227FA
:102D200093271F910F910C9451160C944E160E94EC
:102D300095166093CE017093CF018093D00190934C
:102D4000D1010C943D1260E070E0CB010C94971619
:102D50000F931F9341E050E060E070E08A019B0117
:102D600004C0000F111F221F331F8A95D2F7C9011B
:102D7000B8011F910F910C9497160F931F9341E088
:102D800050E060E070E004C0440F551F661F771FDD
:102D90008A95D2F78091CE019091CF01A091D00178
:102DA000B091D1018A019B01082B192B2A2B3B2BB7
:102DB000C901B8011F910F910C9497160F931F939F
:102DC00041E050E060E070E004C0440F551F661F12
:102DD000771F8A95D2F740955095609570958091B0
:102DE000CE019091CF01A091D001B091D1018A0183
:102DF0009B01082319232A233B23C901B8011F91F2
:102E00000F910C9497160F931F9341E050E060E0F0
:102E100070E004C0440F551F661F771F8A95D2F7D4
:102E20008091CE019091CF01A091D001B091D101BC
:102E30008A019B01082719272A273B27C901B801C6
:102E40001F910F910C9497160F931F930091CE0131
:102E50001091CF012091D0013091D101602B712BC5
:102E6000822B932B1F910F910C9497160F931F9306
:102E70000091CE011091CF012091D0013091D1016C
:102E800060237123822393231F910F910C94971633
:102E90000F931F930091CE011091CF012091D0018B
:102EA0003091D10160277127822793271F910F91BD
:102EB0000C94971608952EE0929F800D1124E82F10
:102EC000E695E695E695877051E001C0550F8A9525
:102ED000EAF785E0E89FF0011124EF55FE4F20E06E
:102EE00030E070E04081CB01022E02C096958795BC
:102EF0000A94E2F781708195842785238427819342
:102F00002F5F3F4F2530310569F708952EE0929FDE
:102F1000800D1124682F669566956695982F977099
:102F200085E0689FB001112440E050E080E0FB01A3
:102F3000E40FF51FEF55FE4F208130E0092E02C04F
:102F4000369527950A94E2F721703327042E01C0A5
:102F5000220F0A94EAF7822B4F5F5F4F45305105ED
:102F600031F70895CF92DF92EF92FF920F931F9364
:102F7000CF93DF938C01C090CE01D090CF01E09031
:102F8000D001F090D1018091D2019091D301A09114
:102F9000D401B091D501C82AD92AEA2AFB2ACFE167
:102FA000D0E0D701C6010C2E04C0B695A795979521
:102FB00087950A94D2F780FD04C0219790F780E0AE
:102FC00007C0B8018C2F0E946D0A0197B1F38C2FB6
:102FD000DF91CF911F910F91FF90EF90DF90CF90F5
:102FE0000895CF93DF93EC010E94B217BE010E94B7
:102FF0006D0ADF91CF9108951F93CF93DF93EB017B
:1030000090916801992321F0CB010E94F11713C020
:10301000882349F0CB010E94B217182F682FCE01E8
:103020000E945B1704C0CB010E948617182FBE01B7
:10303000812F0E946D0ADF91CF911F9108950E9408
:10304000BB1A2091D9013091DA018217930750F011
:103050000E94BB1A2091D9013091DA01821B930B97
:103060009C010AC00E94BB1A2091D9013091DA015B
:1030700020953095280F391F81E0243F314008F416
:1030800080E008958091D80185958595859508956E
:103090008091D801877008950E94BB1A2091D601B3
:1030A0003091D70182179307A8F00E94BB1A209194
:1030B000D6013091D701821B930B843F914010F4CD
:1030C00080E013C08091D80182FB882780F991E0CD
:1030D00089270BC00E94BB1A2091D6013091D701DD
:1030E00020953095820F931FE8CF8170089598E066
:1030F000899F90011124262B2093D8010E94BD1690
:103100000E94BB1A9093D7018093D6010895209115
:10311000D801809582238093D801982F977089F4E5
:1031200030E0482F082E000C550B2417350749F0C6
:103130008595859585950E94DE161092D70110928F
:10314000D60108959091D801977081E009F480E04C
:1031500008958091FE0108959091FE01892B80933E
:10316000FE01089580959091FE0189238093FE01D0
:1031700008951092FE0108959091FD01892B80938E
:10318000FD01089580959091FD0189238093FD01B3
:1031900008951092FD0108959091FC01892B809370
:1031A000FC01089580959091FC0189238093FC0196
:1031B00008951092FC0108958093DB010E94BB1AD0
:1031C0009093DA018093D90108951092DB01109257
:1031D000DA011092D9010895E0910001F091010106
:1031E0008091FE018083E0910001F09101019081C6
:1031F0008091FD01892B8083E0910001F091010114
:1032000090818091FC01892B80838091DB01882350
:1032100021F10E941F18882371F08091FF0180FF27
:1032200008C086EE93E09F938F930E94C6070F908D
:103230000F900E94E518E0910001F091010190814A
:103240008091DB01892B80838091000190910101A5
:103250000E94961981110E94E518809100019091B9
:1032600001010C94110D8091DB01089590933701B9
:103270008093360108958295982F937344E0949F2C
:10328000900111248C7C86958695282B822F85753C
:10329000880F2A7A2695822B0895CF93DF93D92F12
:1032A0000E943B19C82F8D2F0E943B192C2F30E014
:1032B000322F2227A901482BCA01DF91CF9108950F
:1032C0006DEE7EEF80E090E00E944C2A60E082E0AC
:1032D00090E00E943A2A60E083E090E00E943A2A5F
:1032E00060E084E090E00E943A2A60E085E090E0AF
:1032F0000C943A2A80E090E00E94342A21E08D3E2E
:103300009E4F09F020E0822F089582E090E00C9417
:103310002C2A83E090E00C942C2A84E090E00C941A
:103320002C2A682F84E090E00C943A2AFC01319614
:103330009C01205E3F4F80E0919191118F5FE217D9
:10334000F307D1F708959C01FC0132969FEF80E0CE
:103350004191461789F09F3F19F4411101C0982F00
:103360008F5F8E31A9F79F3F39F0F901E90FF11D09
:1033700097FDFA956283089508959C01225E3F4F60
:10338000FC014281461301C0128201968217930705
:10339000B9F70895262F2695269526952F3171F099
:1033A000FC01E20FF11D677021E030E001C0220F47
:1033B0006A95EAF78181282B218308958091FF0186
:1033C00080FF0CC01F926F9386E194E09F938F93D0
:1033D0000E94C6070F900F900F900F900895262F10
:1033E0002695269526952F3179F0FC01E20FF11DE7
:1033F000677021E030E001C0220F6A95EAF720955E
:1034000081812823218308958091FF0180FF0CC0D2
:103410001F926F9388EF93E09F938F930E94C6074C
:103420000F900F900F900F9008952091120122237A
:1034300029F02091380227FD0C94CA190C94A31985
:1034400020911201222329F02091380227FD0C94AB
:10345000EF190C94BD19FC01319680961192E81772
:10346000F907E1F7089508950C94331A0C94331A70
:10347000CF930E94361A0E94D4070E94341AC0E0EB
:103480008C2F0E942D08892B29F4CF5FC530C1F7FE
:1034900080E001C081E0CF9108950C94331A0C9420
:1034A0004D1A80913E02843049F11092000220E4CE
:1034B00088E190E00FB6F894A895809360000FBE65
:1034C0002093600080E00E944C0A0E944F1A83B74C
:1034D000817F846083BF83B7816083BF7894889540
:1034E00083B78E7F83BF0FB6F894A8958091600054
:1034F000886180936000109260000FBE08950C9464
:10350000331A0E9455120E94050D0E944C0A0C9419
:103510007F1A1F920F920FB60F9211248F939F93D1
:10352000AF93BF9380910002811113C08091340248
:1035300090913502A0913602B09137024196A11DBB
:10354000B11D8093340290933502A0933602B0935C
:103550003702BF91AF919F918F910F900FBE0F9047
:103560001F90189582E084BD93E095BD9DE797BDBF
:1035700080936E0008952FB7F89480913402909153
:103580003502A0913602B09137022FBF08952FB7B0
:10359000F8946091340270913502809136029091D6
:1035A00037022FBF0895CF92DF92EF92FF920F93D1
:1035B0001F932FB7F89440913402509135026091D7
:1035C0003602709137022FBF6A017B01EE24FF247F
:1035D0008C0120E030E0C016D106E206F30610F4BC
:1035E000415051099A01281B390BC9011F910F91B4
:1035F000FF90EF90DF90CF90089578941F920F92F4
:103600000FB60F9211248F939F93AF93BF93809126
:10361000340290913502A0913602B09137020196A2
:10362000A11DB11D8093340290933502A093360200
:10363000B0933702BF91AF919F918F910F900FBEC2
:103640000F901F90189581E08093E00080E28093B6
:10365000D8001092C9008FE097E20197F1F700C0FF
:10366000000087E090EBDC018093470290934802D2
:10367000A0934902B0934A029CE088E10FB6F89407
:10368000A895809360000FBE90936000FFCF0E94CA
:103690007A19811102C00E9460190E9485198093D5
:1036A000FF010E948D1990E09093390280933802B7
:1036B0000E948919682F70E080E090E00C945D16FC
:1036C0008091030280FF0BC06091050185E0689F37
:1036D000B001112475956795759567952BC081FF8D
:1036E00009C06091050185E0689FB00111247595BE
:1036F000679520C082FF07C06091050185E0689F43
:10370000B001112417C0909104029923D1F0609167
:103710000401961788F72091050185E0289F900104
:103720001124929FA001939F500D112470E0CA01B3
:103730000E94FE296038710540F46115710519F485
:1037400006C065E070E0862F08958FE7089581E058
:1037500008958091030280FF08C06091030170E02A
:10376000759567957595679521C081FF06C0609135
:10377000030170E07595679519C082FF04C06091E0
:10378000030170E010C090910402992399F06091B8
:1037900002019617A0F780910301899FC0011124AF
:1037A00070E00E94FE296038710540F461157105D2
:1037B00019F406C061E070E0862F08958FE7089540
:1037C00081E00895803F21F40E94601B819504C030
:1037D000813F29F40E94601B809307020895823F75
:1037E00021F40E94601B819504C0833F29F40E944C
:1037F000601B809306020895893F19F40E94A91B5B
:1038000005C08A3F31F40E94A91B8195809308026C
:1038100008958B3F21F40E94A91B819504C08C3F21
:1038200029F40E94A91B809309020895843F21F482
:1038300080910502816017C0853F21F480910502C7
:10384000826011C0863F21F48091050284600BC024
:10385000873F21F480910502886005C0883F31F4DC
:103860008091050280618093050208958D3F21F4C7
:103870008091030281600BC08E3F21F4809103028E
:10388000826005C08F3F29F4809103028460809399
:1038900003020895803F39F48091070287FF6CC0CE
:1038A0001092070269C0813F29F48091070218161F
:1038B000BCF362C090910602823F29F497FF5CC07E
:1038C0001092060259C0833F19F41916CCF354C064
:1038D000893F41F48091080218160CF04DC01092F7
:1038E00008024AC08A3F29F48091080287FF44C039
:1038F000F6CF8B3F39F48091090287FF3DC01092CB
:1039000009023AC08C3F29F4809109021816BCF3D1
:1039100033C0843F21F4809105028E7F17C0853F1C
:1039200021F4809105028D7F11C0863F21F48091A2
:1039300005028B7F0BC0873F21F480910502877FB2
:1039400005C0883F31F4809105028F7E8093050287
:1039500013C08D3F21F4809103028E7F0BC08E3FF8
:1039600021F4809103028D7F05C08F3F29F480915F
:1039700003028B7F809303028091060281110EC0A7
:103980008091070281110AC080910802811106C04E
:1039900080910902811102C0109204020895809161
:1039A000FF0183FF7EC08BE594E00E942D0780918C
:1039B00005021F928F9386E594E09F938F930E9458
:1039C000C60784E594E00E942D0780910602282F07
:1039D000082E000C330B3F938F9381E594E09F9367
:1039E0008F930E94C6078FE494E00E942D07809178
:1039F0000702282F082E000C330B3F938F938CE483
:103A000094E09F938F930E94C6078AE494E00E94FB
:103A10002D0780910802282F082E000C330B3F93AE
:103A20008F9387E494E09F938F930E94C60785E469
:103A300094E00E942D0780910902282F082E000C87
:103A4000330B3F938F9382E494E09F938F930E9474
:103A5000C6078FE394E00E942D07809104021F9215
:103A60008F938CE394E09F938F930E94C6078AE321
:103A700094E00E942D07809103021F928F9387E3A9
:103A800094E09F938F930E94C60784E394E00E9482
:103A90002D078DB79EB74C960FB6F8949EBF0FBEFC
:103AA0008DBF85E092E00E945A0D0E94BB1A909350
:103AB00002028093010208951F93CF93DF938091B8
:103AC0000102909102020E94D31AAC01909104026B
:103AD000992321F02091060130E006C020910701D2
:103AE0008AE0289F900111244217530708F477C0F9
:103AF00080910602C0910702D0910802109109023C
:103B0000811107C0C11167C0D11165C0111163C017
:103B100066C09F3F19F09F5F90930402181624F42B
:103B20000E94601B809306028091060287FF05C0F9
:103B30000E94601B8195809306021C1624F40E944B
:103B4000601B809307028091070287FF05C00E94D7
:103B5000601B819580930702309106023323C1F0E8
:103B6000209107022223A1F045EB3403C001112468
:103B7000892F911101C081E08093060235EB230368
:103B8000C0011124892F911101C081E080930702A7
:103B90001D1624F40E94A91B80930802809108023C
:103BA00087FF05C00E94A91B81958093080211160A
:103BB00024F40E94A91B809309028091090287FFC7
:103BC00005C00E94A91B819580930902DF91CF91C6
:103BD0001F910C94CF1C9F3F09F09DCFAECFDF917A
:103BE000CF911F910895E5E0F2E085E0DF011D929D
:103BF0008A95E9F7109204021092030208958EE765
:103C000096E00E942D071F9281E08F931F9285E01E
:103C10008F9380E396E09F938F930E94C6070F9047
:103C20000F900F900F900F900F9008958330E9F14F
:103C300028F4813061F0823009F10895853009F46B
:103C400062C008F449C0863009F474C008958091B8
:103C50000701262F30E0280F311D2F3F310524F4B6
:103C6000680F6093070103C08FEF80930701809175
:103C700007011F928F9389E695E072C0809106013B
:103C8000262F30E0280F311D2F3F310524F4680F17
:103C90006093060103C08FEF8093060180910601B7
:103CA0001F928F9387E595E05BC080910501262FD9
:103CB00030E0280F311D2F3F310524F4680F609349
:103CC000050103C08FEF80930501809105011F92CC
:103CD0008F9384E495E044C080910401262F30E066
:103CE000280F311D2F3F310524F4680F6093040124
:103CF00003C08FEF80930401809104011F928F9382
:103D00008FE295E02DC080910301262F30E0280F2F
:103D1000311D2F3F310524F4680F6093030103C068
:103D20008FEF80930301809103011F928F9386E1AF
:103D300095E016C080910201262F30E0280F311D3A
:103D40002F3F310524F4680F6093020103C08FEF09
:103D500080930201809102011F928F938BEF94E078
:103D60009F938F930E94C6070F900F900F900F9014
:103D70000895833081F128F4813059F08230D1F0F8
:103D80000895853009F449C0B8F1863009F456C069
:103D9000089580910701681720F4861B809307011E
:103DA00002C010920701809107011F928F938CEE41
:103DB00094E054C080910601681720F4861B80931C
:103DC000060102C010920601809106011F928F9396
:103DD0008AED94E043C080910501681720F4861BAA
:103DE0008093050102C010920501809105011F9288
:103DF0008F9387EC94E032C080910401681720F41F
:103E0000861B8093040102C010920401809104017A
:103E10001F928F9382EB94E021C080910301681779
:103E200020F4861B8093030102C01092030180914D
:103E300003011F928F9389E994E010C080910201E1
:103E4000681720F4861B8093020102C010920201C1
:103E5000809102011F928F938EE794E09F938F933E
:103E60000E94C6070F900F900F900F900895CF9368
:103E7000C82F1F928F9383E897E09F938F930E94A0
:103E8000C60781E090E0A0E0B0E0BC01CD0104C035
:103E9000660F771F881F991FCA95D2F70E945D167B
:103EA0000F900F900F900F90CF910C945512CF93CD
:103EB0008732A8F58E3108F032C1803109F49FC0F5
:103EC000F8F4873009F465C0A8F4863009F02DC1F4
:103ED0008091FF01817F8E7F8093FF0183E299E0D3
:103EE0000E942D0784E89BE00E942D0781E08093CB
:103EF0000B024DC08B30F1F18E3009F46CC015C14E
:103F0000863109F4B0C020F4813109F4F0C00DC14C
:103F1000893109F491C08B3109F449C006C1883355
:103F200049F150F4893209F4FCC0853309F4F9C031
:103F3000873209F4F6C0F9C0833409F4F2C028F4DA
:103F40008A3308F4F2C08953EDC0883409F0EDC01B
:103F50000E94551288E69BE00E942D072FEF89E60C
:103F600098E1215080409040E1F700C000000E949D
:103F7000231B0DC08AE499E05CC08FE49BE00E94A3
:103F80002D078091FF01897F877F8093FF01C1E02A
:103F9000D1C08091FF01C82FC095C170C0FB80F9CE
:103FA0008093FF01CC2349F38CE59BE0B2C0909154
:103FB000FF0191FBCC27C0F981E0C827892FC0FB06
:103FC00081F98093FF01CC2319F082E49BE027C0A4
:103FD00084E39BE02EC09091FF0192FBCC27C0F9B7
:103FE00081E0C827892FC0FB82F98093FF01CC2391
:103FF00019F085E29BE013C085E19BE01AC0909127
:10400000FF0193FBCC27C0F981E0C827892FC0FBB3
:1040100083F98093FF01CC2351F089E09BE00E945B
:104020002D078091FF0181608093FF0183C08CEF99
:104030009AE00E942D07ABCF84E199E00E942D0702
:1040400085EE98E00E942D0784EA98E00E942D07F3
:104050008FE698E00E942D0784E398E00E942D07E8
:1040600089E098E0E6CF8BEF97E00E942D070E9451
:10407000050D1F928F9381EE97E09F938F930E947F
:10408000C607809112011F928F938AEC97E09F934D
:104090008F930E94C607809130021F928F9387EB07
:1040A00097E09F938F930E94C6078091380287FB09
:1040B000882780F91F928F938FE997E09F938F93C2
:1040C0000E94C6070E94C71A9F938F937F936F9396
:1040D00088E897E09F938F930E94C6078DB79EB79D
:1040E00046960FB6F8949EBF0FBE8DBF50CF0E946C
:1040F00055129091380297FBCC27C0F981E0C82770
:10410000892FC0FB87F980933802CC2329F082EFF6
:104110009AE00E942D070EC087EE9AE08ACF8D515B
:1041200001C080E00E94371F32CF85EE9AE00E94E6
:104130002D07C0E08C2FCF91089580E008950C9456
:104140009D208E518A3030F4E82FF0E0ED5EFE4F76
:104150008081089580E00895CF93C82F80910B024D
:10416000813071F020F0823009F44BC03FC1E09102
:104170000001F09101018081823209F039C107C04C
:10418000E0910001F09101018081823261F48C2F75
:104190000E949F20811104C08C2F0E94571F2FC0A6
:1041A00081E090E02CC08C2F0E949D20811126C0C0
:1041B000C431E1F070F4CB3081F0C031D1F40E9411
:1041C000FF1D8BE797E00E942D0782E080930B0292
:1041D00015C0C93259F0C83361F483E299E00E94F6
:1041E0002D078FE797E00E942D0708C010920B0261
:1041F00001C189E797E00E942D07FCC081E0817032
:10420000FBC0C43228F5CE3108F0C1C0CB30A1F1DB
:10421000D0F4C73009F0D0C08EE18093070182E36B
:10422000809306018AE08093050184E18093040174
:1042300088E08093030188E2809302018FE196E099
:104240000E942D07BCC0C33149F1C431C1F0B4C0D4
:10425000CB3409F4A6C028F4C93289F0C83361F020
:10426000ABC0C13509F49BC0C23509F496C0CE3449
:1042700009F0A2C06AE09BC00E94FF1DA0C080910F
:104280000A02882319F010920A0299C08CE296E083
:104290000E942D0781E080930B02AEC086E096E07D
:1042A0000E942D0784EF95E00E942D078091070161
:1042B0001F928F9381EF95E09F938F930E94C60783
:1042C0008FEE95E00E942D078DED95E00E942D0761
:1042D000809106011F928F938AED95E09F938F93B3
:1042E0000E94C60788ED95E00E942D0789EC95E0B5
:1042F0000E942D07809105011F928F9386EC95E017
:104300009F938F930E94C60784EC95E00E942D072F
:1043100083EB95E00E942D07809104011F928F93FB
:1043200080EB95E09F938F930E94C6078EEA95E0FD
:104330000E942D0789E995E00E942D0780910301D5
:104340001F928F9386E995E09F938F930E94C607F3
:1043500084E995E00E942D078DE795E00E942D07E6
:10436000809102011F928F938AE795E09F938F932C
:104370000E94C60788E795E00E942D078DB79EB77B
:1043800048960FB6F8949EBF0FBE8DBF18C08C2FF5
:104390000E94A12080930A0212C061E003C061E084
:1043A00006C06AE080910A020E94161E08C0809131
:1043B0000A020E94B91E03C08DE196E013C08091ED
:1043C0000A02882369F01F928F9387E196E09F93FA
:1043D0008F930E94C6070F900F900F900F9004C00C
:1043E00084E196E00E942D0781E006C010920B0246
:1043F00080E002C080E003CFCF91089580912F022A
:1044000008959FB7F89410920E029FBF90913E02BC
:10441000943009F057C09091E9009F703091EC0002
:10442000232F217030FD20E8922B24E02093E90017
:104430002091EB0020FF43C02091EE0027FF3FC0FA
:1044400020910C02222321F02091E80025FF37C0A3
:1044500010920C0226E03091E80035FD15C0309135
:104460003E02343061F53091EB0035FD28C021501B
:1044700021F481E080930C0222C0EFECF7E0319749
:10448000F1F700C00000E7CF8093F1008091E800D1
:1044900085FD0AC08091E80080FFFCCF8091E80094
:1044A0008E778093E80006C08FB7F89421E02093C0
:1044B0000E028FBF9F709093E90080E008959F7077
:1044C0009093E9008FEF08950F931F93CF93DF939D
:1044D00000D01F92CDB7DEB78C010E943C25823000
:1044E00011F0843019F583E089831B830A8380935C
:1044F000E9008FEF9091E800815095FD06C09AE6A3
:104500009A95F1F700C08111F5CF8091E80085FF01
:104510000DC040E050E063E070E0CE0101960E94E3
:1045200058258091E8008E778093E8000F900F90D7
:104530000F90DF91CF911F910F910895CF93DF934B
:1045400000D01F92CDB7DEB720913E02243031F566
:1045500022E02983805891099B838A8383E080939A
:10456000E9008FEF9091E800815095FD06C09AE632
:104570009A95F1F700C08111F5CF8091E80085FF91
:104580000DC040E050E063E070E0CE0101960E9473
:1045900058258091E8008E778093E8000F900F9067
:1045A0000F90DF91CF910895CF93DF93EC010E949C
:1045B0003C25823011F08430F9F482E08093E900E8
:1045C0008FEF9091E800815095FD06C09AE69A958C
:1045D000F1F700C08111F5CF8091E80085FF0CC094
:1045E00040E050E065E070E0CE010E9458258091E7
:1045F000E8008E778093E800DF91CF910895CF9304
:10460000DF93EC010E943C25823019F0843009F0E0
:1046100047C0809112018823E1F08091380287FF22
:1046200018C085E08093E9008FEF9091E8008150F9
:1046300095FD06C09AE09A95F1F700C08111F5CF7B
:104640008091E80085FF2CC040E050E060E270E01F
:1046500017C081E08093E9008FEF9091E8008150CE
:1046600095FD06C09AE69A95F1F700C08111F5CF45
:104670008091E80085FF14C040E050E068E070E001
:10468000CE010E9458258091E8008E778093E80043
:1046900080E2FE01AFE0B2E001900D928A95E1F771
:1046A000DF91CF9108958DEA9BE00E942D078091C4
:1046B0003D02811109C00E94E9260E94462780918F
:1046C000E20084608093E200089589EA9BE00E9402
:1046D0002D0710923D02089585EA9BE00C942D076A
:1046E00081EA9BE00C942D078DE99BE00E942D0749
:1046F0000C94811A20910D022F5F822F62E30E9499
:10470000F229992319F020930D02089510920D02B9
:1047100080910E02882371F180913E02843041F530
:104720008091E9008F702091EC00922F917020FD14
:1047300090E8892B94E09093E9009091EB0090FF32
:1047400014C09091EE0097FF10C09091E80095FF83
:1047500003C01092F100F9CF9091E80090FF05C0DE
:104760009091E8009E779093E8008F708093E90025
:1047700010920E02089542E061EC81E00E946226F0
:1047800042E061EC82E00E94622642E061EC83E05C
:104790000E94622642E261EC84E00E94622642E2CC
:1047A00061EC85E00C94622680914002833009F42C
:1047B00055C030F4813071F0823009F48EC0089514
:1047C0008A3009F47AC08B3009F460C0893009F06E
:1047D0009CC020C080913F02813A09F096C0809130
:1047E000E800877F8093E800809143029091440223
:1047F000892B21F460E28FE092E003C060E080E06A
:1048000090E070E00E94A3258091E8008B77809370
:10481000E800089580913F02813209F076C08091CE
:10482000430290914402009719F0049709F06DC07B
:104830008091E800877F8093E8008091E80082FD06
:1048400005C080913E028111F8CF5FC08091F100D8
:1048500080932F028091E8008B7753C080913F02B4
:10486000813A09F052C08091430290914402892B11
:1048700009F04BC08091E800877F8093E800809129
:10488000E80080FFFCCF8091120136C080913F028A
:104890008132D9F58091430290914402892BA9F588
:1048A0008091E800877F8093E8000E94972680919E
:1048B0004102809312010C94551280913F02813283
:1048C00021F58091E800877F8093E8000E94972679
:1048D0008091420280933002089580913F02813A94
:1048E000A1F48091E800877F8093E8008091E80040
:1048F00080FFFCCF809130028093F1008091E8002E
:104900008E778093E8000C949726089584B7877F6C
:1049100084BF0FB6F894A895809160008861809359
:104920006000109260000FBE80E8809361001092DA
:1049300061000E94920D0E94E9260E944627809104
:10494000E20084608093E20081E092E20E943619E6
:1049500078940E94D7290E94960D88E091E00E94E9
:10496000000D8CE89BE00E942D0780913E0285306F
:1049700089F488E89BE00E942D070E94511A8091DB
:104980003C02882391F30E94381A882371F30E9415
:104990004325EBCF0E94CA0DE8CF0C94CF24292FDA
:1049A000332723303105C9F060F42130310581F01F
:1049B0002230310509F047C08DE890E023EF3BE05D
:1049C00046C02132310511F12232310561F13BC07F
:1049D00082E190E020E83CE03AC0992781309105DF
:1049E00061F040F08230910559F0039761F5E1EBF9
:1049F000FBE008C0EFEEFBE005C0EFECFBE002C01F
:104A0000E7EBFBE0849190E09F0121C065307105E8
:104A1000D0F4660F771FFB01E45DFE4F20813181EA
:104A200089E090E014C06530710568F4FB01EE0F79
:104A3000FF1FEE5DFE4F20813181FB01E35EFE4FE3
:104A4000808190E004C080E090E020E030E0FA0156
:104A50003183208308950895CF93C82F0E942B257A
:104A6000C0933102CF91089580913E02843011F0BD
:104A700081E0089582E0089580913102811102C0A1
:104A80000C943425089519BC82E089BD09B400FE58
:104A9000FDCF8091D8008F7D8093D8008091E00079
:104AA00082608093E0008091E00081FDFCCF08955A
:104AB000CF92DF92EF92FF920F931F93CF93DF93EA
:104AC000EC018B017A010E94B626811133C0E114FA
:104AD000F10439F0F70180819181081B190BC80F8F
:104AE000D91FC12CD12C0115110519F18091E800B5
:104AF00085FD16C08091E8008E778093E800E11470
:104B0000F10449F0F70180819181C80ED91ED1824C
:104B1000C08285E00FC00E94B626882321F30AC018
:104B200089918093F10001501109FFEFCF1ADF0A3C
:104B3000DACF80E0DF91CF911F910F91FF90EF903E
:104B4000DF90CF90089520914502309146022617BC
:104B5000370748F06115710539F42091E8002E7788
:104B60002093E80001C0B901FC0120E06115710546
:104B700079F180913E028823F1F18530F1F1809145
:104B8000E80083FD3CC08091E80082FD2EC080914A
:104B9000E80080FFEBCF2091F3008091F20090E0DD
:104BA000922B6115710551F08830910538F42191EF
:104BB0002093F100615071090196F3CF21E008972D
:104BC00009F020E08091E8008E778093E800CECF56
:104BD0002111CFCF0AC080913E02882361F0853039
:104BE00061F08091E80083FD0AC08091E80082FFB7
:104BF000F2CF80E0089582E0089583E0089581E097
:104C0000089520914502309146022617370748F053
:104C10006115710539F42091E8002E772093E800A2
:104C200001C0B901FC0120E06115710591F180918D
:104C30003E02882309F440C0853009F43FC08091CA
:104C4000E80083FD3DC08091E80082FD2FC0809187
:104C5000E80080FFE9CF2091F3008091F20090E01E
:104C6000922B6115710559F08830910540F424911B
:104C70002093F1003196615071090196F2CF21E045
:104C8000089709F020E08091E8008E778093E80093
:104C9000CBCF2111CCCF0AC080913E02882361F096
:104CA000853061F08091E80083FD0AC08091E800C2
:104CB00082FFF2CF80E0089582E0089583E00895B6
:104CC00081E00895982F973068F59093E900981740
:104CD00039F07091EC002091ED005091F00003C08C
:104CE000242F762F50E021FD02C09F5FECCF309142
:104CF000EB003E7F3093EB003091ED003D7F309331
:104D0000ED003091EB0031603093EB007093EC00DC
:104D10002093ED005093F0002091EE0027FDE5CFA9
:104D200080E008958F708093E90081E0089580917C
:104D30003F0287FF11C08091E80082FD05C080918D
:104D40003E028111F8CF11C08091E8008B770BC033
:104D500080913E02882349F08091E80080FFF8CFDF
:104D60008091E8008E778093E80008952091E40018
:104D70003091E50095E64091EC00842F817040FF72
:104D800023C08091E80080FD1DC080913E028823F1
:104D900099F0853099F08091EB0085FD11C040912C
:104DA000E4005091E5002417350729F3915011F0E4
:104DB0009A01E1CF84E0089582E0089583E00895A8
:104DC00081E0089580E008954091E80042FFDDCF42
:104DD00008950E9457270E945F27E0EEF0E080814F
:104DE00081608083E8EDF0E080818F77808319BC5B
:104DF000A7EDB0E08C918E7F8C9380818F7E808335
:104E000010923D0208950F931F93CF93DF930E945A
:104E100057270E945F27C8EDD0E088818F7788836D
:104E200088818068888388818F7D888319BC1092EF
:104E30003E0210923A0210923C0210923B0200EEA7
:104E400010E0F80180818B7F808388818160888376
:104E500042E060E080E00E946226E1EEF0E08081C6
:104E60008E7F8083E2EEF0E08081816080838081AC
:104E700088608083F80180818E7F80838881806153
:104E80008883DF91CF911F910F910895E8EDF0E0B5
:104E900080818F7E8083E7EDF0E080818160808378
:104EA00084E082BF81E080933D020C940327E8ED0B
:104EB000F0E080818E7F80831092E200089510924E
:104EC000DA001092E10008951F920F920FB60F9230
:104ED00011242F933F934F935F936F937F938F93FF
:104EE0009F93AF93BF93EF93FF938091E10082FF75
:104EF0000BC08091E20082FF07C08091E1008B7FB0
:104F00008093E1000E947A238091DA0080FF1DC027
:104F10008091D80080FF19C08091DA008E7F809345
:104F2000DA008091D90019BC80FF0BC082E089BDF6
:104F300009B400FEFDCF81E080933E020E9453231E
:104F400004C010923E020E9465238091E10080FF20
:104F500019C08091E20080FF15C08091E2008E7F31
:104F60008093E2008091E20080618093E200809172
:104F7000D80080628093D80019BC85E080933E02FF
:104F80000E9470238091E10084FF2FC08091E20095
:104F900084FF2BC019BC82E089BD09B400FEFDCF9F
:104FA0008091D8008F7D8093D8008091E1008F7E22
:104FB0008093E1008091E2008F7E8093E2008091F7
:104FC000E20081608093E20080913A02882311F030
:104FD00084E007C08091E30087FD02C081E001C04A
:104FE00083E080933E020E9474238091E10083FF5E
:104FF00029C08091E20083FF25C08091E100877F76
:105000008093E10082E080933E0210923A02809108
:10501000E1008E7F8093E1008091E2008E7F80939B
:10502000E2008091E20080618093E20042E060E073
:1050300080E00E9462268091F00088608093F000FA
:105040000E946C23FF91EF91BF91AF919F918F913F
:105050007F916F915F914F913F912F910F900FBE74
:105060000F901F9018951F920F920FB60F92112458
:105070002F933F934F935F936F937F938F939F9360
:10508000AF93BF93CF93DF93EF93FF93C091E9006A
:10509000CF708091EC00D82FD17080FDD0E81092B5
:1050A000E9008091F000877F8093F00078940E945F
:1050B00077281092E9008091F00088608093F000DA
:1050C000CD2BCF70C093E900FF91EF91DF91CF918D
:1050D000BF91AF919F918F917F916F915F914F9110
:1050E0003F912F910F900FBE0F901F9018951F9317
:1050F000CF93DF93CDB7DEB7AA970FB6F894DEBF94
:105100000FBECDBFEFE3F2E08091F100819322E08A
:10511000E734F207C9F70E94D4238091E80083FFA7
:105120002EC180913F0290914002492F50E04A30B9
:10513000510508F024C1FA01E556FF4F0C94122ADC
:10514000803821F0823809F01AC108C080913B02F2
:1051500090913C02992389F082600FC080914302B4
:105160008F70873008F00BC18093E9008091EB00CD
:1051700085FB882780F91092E9009091E800977FDD
:105180009093E8008093F1001092F100D1C0282F95
:105190002D7F09F0F4C0882319F0823061F0EFC050
:1051A00080914102813009F0EAC0933009F080E03B
:1051B00080933C022EC08091410281112AC08091CF
:1051C00043028F702FEF280F263008F0D8C080934D
:1051D000E9002091EB0020FF1CC0933021F4809166
:1051E000EB00806214C09091EB0090619093EB0013
:1051F00021E030E0A90102C0440F551F8A95E2F773
:105200004093EA001092EA008091EB00886080935E
:10521000EB001092E9008091E800877F8093E8001E
:105220000E949726ACC08111AAC0109141021F773D
:105230008091E3008078812B8093E3008091E800E7
:10524000877F8093E8000E9497268091E80080FF86
:10525000FCCF8091E30080688093E300111102C0CD
:1052600082E001C083E080933E0289C08058823092
:1052700008F085C080914102909142028C3D53E03C
:10528000950779F583E08A838AE289834FB7F8949A
:10529000DE01139620E03EE051E2E32FF0E0509370
:1052A0005700E49120FF03C0E295EF703F5FEF707D
:1052B0008E2F90E0EA3010F0C79601C0C0968D9313
:1052C0009D932F5F243149F74FBF8091E800877F7E
:1052D0008093E8006AE270E0CE0101960E94A32567
:1052E00016C06091430270914402AE014F5F5F4F60
:1052F0000E94CD24BC01892B09F441C09091E800A3
:10530000977F9093E80089819A810E94012680917D
:10531000E8008B778093E80032C0803881F5809177
:10532000E800877F8093E80080913A028093F10043
:105330008091E8008E7772CF811121C08091410267
:105340009091420299270297D4F48091E800877FD8
:105350008093E8008091410280933A020E94972650
:1053600080913A02811106C08091E30087FD02C05E
:1053700081E001C084E080933E020E94BB238091C3
:10538000E80083FF0AC08091E800877F8093E800EF
:105390008091EB0080628093EB00AA960FB6F894A0
:1053A000DEBF0FBECDBFDF91CF911F910895CF9388
:1053B00080913E028823A1F0C091E900CF709091C6
:1053C000EC00892F817090FD80E8C82B1092E900D5
:1053D0008091E80083FD0E947728CF70C093E90098
:1053E000CF910895991B79E004C0991F961708F092
:1053F000961B881F7A95C9F78095089597FB072E0D
:1054000016F4009407D077FD09D00E94182A07FCF3
:1054100005D03EF4909581959F4F089570956195C4
:105420007F4F0895EE0FFF1F0590F491E02D099432
:10543000AA1BBB1B51E107C0AA1FBB1FA617B707BA
:1054400010F0A61BB70B881F991F5A95A9F78095D6
:105450009095BC01CD010895F999FECF92BD81BD13
:10546000F89A992780B50895A8E1B0E042E050E0AD
:105470000C94542A262FF999FECF92BD81BDF89A3B
:10548000019700B4021639F01FBA20BD0FB6F89488
:10549000FA9AF99A0FBE08950196272F0E943B2A87
:1054A0000C943A2ADC01CB01FC01F999FECF06C02D
:1054B000F2BDE1BDF89A319600B40D9241505040D2
:0854C000B8F70895F894FFCF3E
:1054C800DC012808140A321EFE21FF22D4229E2263
:1054D80064220101020304050607080900404D364D
:1054E8002239700D230DED0CCB0C920C050C1E0C03
:0654F800370C500C700C93
:00000001FF
