:100000000C947F020C94C6020C94C6020C94C60297
:100010000C94C6020C94C6020C94C6020C94C60240
:100020000C94C6020C94C6020C94F51D0C94C41ECC
:100030000C9460140C94C6020C94C6020C94C60274
:100040000C94C6020C94C6020C94C6020C94C60210
:100050000C94C6020C94C8140C94C6020C94C602EC
:100060000C94C6020C94C6020C94C6020C94C602F0
:100070000C94C6020C94C6020C94C6020C94C602E0
:100080000C94C6020C94C6020C94C6020C94C602D0
:100090000C94C6020C94C6020C94C6020C94C602C0
:1000A0000C94C6020C94C6020C94C60215041704E4
:1000B000220419041B041D041F0421042404260423
:1000C000280433042A042C042E043004320435049A
:1000D000150A150A470A470A850AA30A090C090CDA
:1000E000E50A090C880B880BF90B090C090C020CAA
:1000F000950B950B950B950B950B950B950B950B00
:10010000950B950B950B950B950B950B950B950BEF
:10011000A60BB40BBB0BC20BCC0B9A0C9A0CAC0C01
:10012000AC0CA30CAC0CAC0CAC0C9A0C9A0CA80C40
:10013000AC0CAC0CA80C311F581F5020581F50207D
:10014000A41FC71F50201E202D2029001C002B009B
:100150000B00E1001100E0002C0014001800040066
:100160000D001D001000E200DD5C1A000C001600FE
:100170000E001B003600E3005000080012000700CC
:100180000F0006003700DE5C510015001300090067
:10019000330019003800DC5C520017004C000A00E4
:1001A0003400050028002C004F0029001E001F000D
:1001B0002000210022000000000023002400250070
:1001C000260027002A0000000000350223024C0010
:1001D0003F00BE5C4500010001001E0224023A00FF
:1001E0002D0240003202010001001F0225023B00E7
:1001F0002E02410064020100AB00200226023C00F6
:100200002F02420001000100AA00210227023D0046
:100210003002430001000100A90022022A003E0032
:100220003102440001000100AE0035021E021F022F
:1002300020022102220200000000230224022502E3
:10024000260227022A0000000000350023004C008F
:100250003F0001004500010001001E0024003A009B
:100260002D0040003200010001001F0025003B006E
:100270002E00410064000100AB00200026003C007D
:100280002F00420001000100AA00210027003D00CC
:100290003000430001000100A90022002A003E00B6
:1002A0003100440001000100AE0029001E001F00C3
:1002B000200021002200000000002300240025006F
:1002C000260027002A00000000003A00400001003C
:1002D000010001000100010001003B004100005C41
:1002E000010001000100010001003C00420001008A
:1002F000010001000100010001003D0043001D5C00
:10030000010001000100010001003E0044001E5CEC
:10031000010001000100010001003F004500010053
:100320004C0001000100010001003A003B003C00CC
:100330003D003E003F000000000040004100420040
:1003400043004400450000000000040330000000AA
:100350000C036B00610070007000610000001E0360
:1003600053006F0075007400680070006100770032
:10037000440065007300690067006E00000004031C
:10038000090409026D00040100A0FA09040000013B
:10039000030101000921110100012240000705812C
:1003A0000308000A090401000103010200092111E8
:1003B000010001224D000705820308000A0904021A
:1003C000000103000000092111010001223600078D
:1003D00005830308000A0904030001030000000963
:1003E00021110100012239000705840320000112B8
:1003F00001100100000008EDFE6060010001020331
:100400000105010906A101050719E029E7150025E5
:1004100001950875018102050819012905950575E1
:100420000191029501750391010507190029F7153E
:1004300000250195F875018102C005010980A1011F
:1004400085021601002603001A81002A8300751018
:1004500095018100C0050C0901A101850316010069
:10046000269C021A01002A9C02751095018100C089
:1004700005010902A1010901A100050919012905C8
:10048000150025019505750181029501750381010E
:100490000501093009311581257F9502750881060E
:1004A00009381581257F950175088106050C0A38E4
:1004B000021581257F950175088106C0C0050109D7
:1004C00006A101050719E029E71500250195087522
:1004D0000181029501750881010508190129059519
:1004E0000575019102950175039101050719002910
:1004F000FF150026FF00950675088100C000112435
:100500001FBECFEFDAE0DEBFCDBF04B603FE27C0CB
:100510008091350290913602A0913702B091380255
:100520008730904BA740B04BD1F410923502109217
:100530003602109237021092380214BE84B7877FB9
:1005400084BF0FB6F894A89580916000886180936D
:100550006000109260000FBEE0E0F8E3099511E042
:10056000A0E0B1E0E4EDF1E402C005900D92A23309
:10057000B107D9F722E0A2E3B1E001C01D92A53393
:10058000B207E1F70E94231B0C94E8200C940000B2
:1005900008950C94C8020C94F104CF93DF93CDB767
:1005A000DEB729970FB6F894DEBF0FBECDBF10920D
:1005B000CC001092CD0088E18093C90086E0809342
:1005C000CA0083E78093CE00FE01319689E0DF0107
:1005D0001D928A95E9F7CE010A96DF0140E050E0CE
:1005E000BA012091C80027FD0AC04F5F5F4F6F4FCF
:1005F0007F4F413127E252076105710590F3209149
:10060000CE002D93A817B90761F78985803E49F47C
:10061000A2E3B1E0CE01099621912D93E817F907E5
:10062000D9F70E94F30481E029960FB6F894DEBF53
:100630000FBECDBFDF91CF910895E82FF0E0EE5CC3
:10064000FE4F8081089508951092CC001092CD0045
:1006500088E18093C90086E08093CA000895519A8A
:10066000599A80B3806380BB81B3806381BB089556
:100670000E94C9020E9424030C942F030C9463036C
:100680000895CF93FB018D3D2CE5920751F08E3DEF
:100690002CE5920749F08C3D9C4589F4C28181E0AC
:1006A00005C0C28182E002C0C28183E0CC2321F078
:1006B0000E94EE10C0E004C00E940F1101C0C1E012
:1006C0008C2FCF910895089581E008950C944103F3
:1006D0000E94860C2FE78AE196E0215080409040EE
:1006E000E1F700C0000087E797E790930108809347
:1006F00000080C94EE14FF920F931F93CF93DF9397
:100700008C01FC01C081D18180915E01811113C0F7
:100710008281882349F0CE010E94E311F82E682FD0
:10072000CE010E948C1104C0CE010E94B711F82E98
:10073000BE018F2D04C0CE010E94E311BE010E94B4
:10074000FB04EC01B8010E946603882309F442C14E
:10075000B801CE010E945C07882309F43BC1C53172
:10076000FCE5DF0739F50E94DA12982FF801828143
:100770002091000130910101882379F09A7A81E07B
:1007800009F480E080933A01911102C069E201C04E
:1007900065E3C9010E94ED130AC080913A018111FD
:1007A00002C069E201C065E3C9010E94F8130E941A
:1007B0001D1310C1C6318CE5D80708F07EC0C130CA
:1007C000ECE5DE0759F4F8018281882309F402C1BF
:1007D0008091F00181608093F001FCC0C230FCE5A3
:1007E000DF0708F452C0F8018281882309F455C05C
:1007F0000E947413811102C00E945A130E94871331
:1008000090E09093270280932602FE01E350FC457E
:10081000E231F10530F4EA5AFF4F809126020C9440
:10082000982080912602816027C0826025C0846064
:1008300023C0806121C080621FC080641DC08068A9
:100840001BC08460886018C08E7F16C08D7F14C066
:100850008B7F12C08F7E10C08F7D0EC08F7B0CC02F
:100860008F770AC08B7F877F07C087FB222720F9FD
:1008700091E0922790FB87F98093260280912602CF
:100880000E948B130E94860CA5C0C115DC4569F03F
:1008900081E080933F0180934001C801DF91CF91B7
:1008A0001F910F91FF900C946403F80182818823BB
:1008B00009F490C00E9468038DC0C63DECE5DE07D8
:1008C00059F5F8018281882361F0109240010E945D
:1008D000921490933E0180933D0180E20E94D209E0
:1008E00079C080914001882321F080E20E94D909DB
:1008F00071C080913D0190913E010E949E14883C00
:10090000910598F780E20E94D90988E20E94F808D0
:1009100088E20E94A6095EC0C73DFCE5DF0708F03B
:1009200044C0C43D8CE5D80719F5F80182818823BD
:1009300051F010923F010E94921490933C018093D9
:100940003B0182E0CBCF80913F0181110FC08091AC
:100950003B0190913C010E949E14883C910530F42B
:1009600086E20E94F80886E20E94A60982E0BECFD5
:10097000C53DDC4509F08CCFF80182818111A5CFFE
:10098000809140018111B1CF80913D0190913E0154
:100990000E949E14883C910508F0A7CF87E20E9430
:1009A000F80887E20E94A609A0CFC93DFCE5DF0751
:1009B00031F4F8018281882369F080E009C0CA3DE2
:1009C000DC4509F065CFF8018281882319F082E0C7
:1009D0000E94BD1B80E0DF91CF911F910F91FF908E
:1009E00008950C9438030C943E030C94400380E06B
:1009F00090E008950895E72FF0E098E0899FE00DDA
:100A0000F11D112483E0EE0FFF1F8A95E1F7E60F39
:100A1000F11DEE0FFF1FE65BFE4F85919491089547
:100A2000880F991FFC01E65BFC4F85919491089516
:100A3000CF93DF930E94FB040E94BC06EC0181155A
:100A4000904508F041C0C11580E4D80708F01CC1EA
:100A5000C83ED10510F5C03ED10508F089C1C83A9D
:100A6000D10578F4C53AD10508F09EC0C130D10552
:100A700009F47EC108F435C1C430D10508F078C14D
:100A800030C1CD3BD10508F49AC0C03CD10508F473
:100A900028C1CE01805C9109E9C0C11590E2D90757
:100AA00058F4C11521E0D20708F062C1C03FD1055A
:100AB00008F417C1D0655CC1C11580E3D80708F000
:100AC000D9C0CE019F70D2C0C11595E5D90708F0F5
:100AD00044C0C11524E5D20708F0EDC0C11582E578
:100AE000D80710F5C11591E5D90708F0D0C0CE019F
:100AF00074E0969587957A95E1F7282F23703C2F1F
:100B0000337081E090E002C0880F991F3A95E2F7B8
:100B10009C68922BCF70C695C69520E2C29FE001DB
:100B20001124C82BD92B24C19E01237033278C2F6D
:100B300086958695C115D34508F0AEC0C1E0D0E0DA
:100B400002C0CC0FDD1F2A95E2F720E2829FC00190
:100B50001124C82BD92BDC680BC1C11529E5D2079C
:100B600080F4C11588E5D80708F0AAC0C11596E53C
:100B7000D90708F0B6C0CF71DD27DC2FCC27D062B3
:100B8000F7C0CE01C1152AE5D20708F49EC09056E1
:100B90008115904208F0A5C08D2F8F710E943807F3
:100BA000DD27D0628F719BC0C53AD10509F49CC086
:100BB000C63AD10509F09BC0C2E8D0E4D9C0C83A12
:100BC000D10509F497C0C93AD10509F496C0CA3ACB
:100BD000D10509F495C0CB3AD10509F494C0CC3ABB
:100BE000D10509F493C0CB3BD10509F492C0CC3BAD
:100BF000D10509F491C0CD3AD10509F490C0C03BAC
:100C0000D10509F48FC0CE3AD10509F48EC0CF3A90
:100C1000D10509F48DC0C13BD10509F48CC0C23B9C
:100C2000D10509F48BC0C33BD10509F48AC0C43B8C
:100C3000D10509F489C0C53BD10509F488C0C63B7C
:100C4000D10509F487C0C73BD10509F486C0C83B6C
:100C5000D10509F485C0C93BD10509F484C0CA3B5C
:100C6000D10509F483C0C0E0D4E482C00E9410051D
:100C7000EC017EC0CE019927D3FF03C0EC01D86CF4
:100C800077C0EC01D06C74C0DF70D06A71C0DC2F0B
:100C9000CC27C16FD06A6CC0C1E0D0E002C0CC0FDD
:100CA000DD1F2A95E2F720E2829FC0011124C82BA4
:100CB000D92BDA685DC0DC2FCC27C46FD06A58C04E
:100CC000DC2FCC27C06FD06A53C024E0969587955F
:100CD0002A95E1F78F70CF70C06ED0E0D06AD82B24
:100CE00047C0C0E0D0E044C0C1E8D0E441C0C3E8A0
:100CF000D0E43EC0C2EED4E43BC0C9EED4E438C078
:100D0000CAEED4E435C0C5EBD4E432C0C6EBD4E4BB
:100D10002FC0C3EBD4E42CC0C4EBD4E429C0C7EB90
:100D2000D4E426C0CCECD4E423C0CDECD4E420C081
:100D3000C3E8D5E41DC0CAE8D5E41AC0C2E9D5E4C9
:100D400017C0C4E9D5E414C0C1E2D6E411C0C3E2BF
:100D5000D6E40EC0C4E2D6E40BC0C5E2D6E408C0B7
:100D6000C6E2D6E405C0C7E2D6E402C0CAE2D6E4D1
:100D7000CE01DF91CF9108958238910549F1B0F409
:100D80008133910509F459C048F48932910509F479
:100D90004FC08A32910509F455C0089585339105F5
:100DA00009F441C08933910599F00895833E910576
:100DB00031F138F4803E910591F0823E9105A9F021
:100DC0000895863E910501F1873E910539F1089518
:100DD0002091260220FD3BC021FD39C0089580915D
:100DE000260280FF34C089E341C08091260282FF41
:100DF00030C08091260284FD2EC083EE37C08091E2
:100E0000260282FD26C0F5CF8091260283FF25C0F1
:100E10008091260284FD1FC087EE28C080912602A3
:100E200083FD1BC0F5CF8091260285FD18C019C037
:100E30008091260285FD15C012C08091260286FD94
:100E400012C013C08091260286FD0FC00CC080EE38
:100E50000DC082EE0BC080E009C086EE07C089E2BB
:100E600005C085E303C08AE201C081E390E00895F4
:100E70009091260292FF0DC0282F2871283019F476
:100E8000877F846006C0282F2471243011F48B7F63
:100E9000886093FF0DC0282F2871283119F4877EB0
:100EA000846106C0282F2471243111F48B7E88615F
:100EB00094FD877E089508950F931F93CF93FB01B0
:100EC0002281211102C0C1E041C08C01C0914E01BC
:100ED000C11125C086319C45B1F70E945B0781E0B6
:100EE00080934E010E94921490934D0180934C0187
:100EF000109241011092430110924201109245015B
:100F0000109244011092470110924601109249013B
:100F10001092480110924B0110924A0117C0809123
:100F20004C0190914D010E949E148C32914058F6D4
:100F300090914101E92FF0E0EE0FFF1FEE5BFE4FB5
:100F4000118300839F5F90934101C0E08C2FCF916C
:100F50001F910F9108959093540180935301089528
:100F6000E0915301F0915401309721F00190F0810C
:100F7000E02D099480E00895E0915301F09154012F
:100F8000309721F00280F381E02D09940895E091DB
:100F90005301F0915401309721F00480F581E02D48
:100FA0000994089520915101309152012817390771
:100FB00071F09093520180935101E0915301F091AF
:100FC0005401309721F00680F781E02D09940895AF
:100FD00020914F01309150012817390771F09093FB
:100FE000500180934F01E0915301F09154013097EB
:100FF00021F00084F185E02D0994089508950C9462
:10100000FE0781E008950E94891485B7806885BF36
:1010100085B7806885BF0E94CB020C94FF14BF92F5
:10102000CF92DF92EF92FF920F931F93CF93DF93B4
:10103000CDB7DEB72A970FB6F894DEBF0FBECDBF8F
:101040000E94CD020E940108811111C08FEF898397
:101050008A831B820E9492148160782F9D838C83E7
:1010600049815A816B818D810E94B80854C086E500
:10107000C82E81E0D82E00E010E0B02E802F0E9414
:101080001D03E82EF60121916F01F82EF22631F4AE
:101090000F5F1F4F0830110581F7D8CF8091F00105
:1010A00081FD0E94230380E090E02F2D30E0482F47
:1010B000B901082E02C0759567950A94E2F760FFA2
:1010C00025C08E83BF8281E090E06C0102C0CC0C11
:1010D000DD1C4A95E2F72E2D30E02C213D21232BFB
:1010E00009F480E088870E9492148160782F9A87A3
:1010F00089874E815F8168858A850E94B808F801DA
:10110000EA5AFE4F80818C25808305C00196883085
:10111000910569F6BDCF0E9492160E94B00790918A
:1011200055018917A9F00E94B007809355012A96AE
:101130000FB6F894DEBF0FBECDBFDF91CF911F91E8
:101140000F91FF90EF90DF90CF90BF900C94F5043B
:101150002A960FB6F894DEBF0FBECDBFDF91CF91B8
:101160001F910F91FF90EF90DF90CF90BF90089567
:10117000CF93DF93CDB7DEB72B970FB6F894DEBFD2
:101180000FBECDBF4F83588769877A878B87DE0173
:10119000119686E0FD0111928A95E9F785E0FE013E
:1011A000379601900D928A95E1F70E947D1288236F
:1011B00019F082E00E94B8120E94501281110E9420
:1011C000161349815A816B817C818D819E810E9499
:1011D000530F2B960FB6F894DEBF0FBECDBFDF9135
:1011E000CF910895FC01808191810E94221208957F
:1011F000CF93882309F4A8C0C82F8CEF8C0F813AB5
:1012000068F48C2F0E94BF1881119EC06C2F8091B2
:101210000001909101010E94ED130CC080E28C0F3F
:10122000883058F4C77081E001C0880FCA95EAF78A
:101230000E94DD12CF910C941D138BE58C0F83302F
:1012400078F4C53A29F0C63A31F083E890E005C059
:1012500081E890E002C082E890E0CF910C94D20740
:1012600088E58C0F853108F06FC0C83A61F1C93A42
:1012700069F1CA3A71F1CB3A79F1CC3A81F1CB3BC1
:1012800089F1CC3B91F1CD3A99F1C03BA1F1CE3A35
:10129000A9F1CF3AB1F1C13BB9F1C23BC1F1C33BB6
:1012A000C9F1C43BD1F1C53BD9F1C63BE1F1C73B24
:1012B000E9F1C83BF1F1C93BF9F1CA3B09F43FC080
:1012C00080E090E03EC082EE90E03BC089EE90E08E
:1012D00038C08AEE90E035C085EB90E032C086EBF6
:1012E00090E02FC083EB90E02CC084EB90E029C00D
:1012F00087EB90E026C08CEC90E023C08DEC90E072
:1013000020C083E891E01DC08AE891E01AC082E91C
:1013100091E017C084E991E014C081E292E011C02D
:1013200083E292E00EC084E292E00BC085E292E09C
:1013300008C086E292E005C087E292E002C08AE23D
:1013400092E0CF910C94E807CF910895882349F15A
:10135000682F8CEF860F813A38F4809100019091CC
:1013600001010E94F8130CC080E2860F883050F40F
:10137000677081E001C0880F6A95EAF70E94E31266
:101380000C941D138BE5860F833020F480E090E0F1
:101390000C94D207685A653120F480E090E00C94F8
:1013A000E8070895882321F00E94DD120C941D1394
:1013B0000895882321F00E94E3120C941D130895D0
:1013C0008F929F92AF92BF92DF92EF92FF920F9314
:1013D0001F93CF93DF937C01D62FC72FFC0105818C
:1013E00002950F70128111110E94FA120E94D312FD
:1013F000882379F0112369F080E28D0F883048F05E
:1014000082E00E94B8120E94D31291E0D82ED92611
:1014100001C0D12CBC2EB2948FE0B8228B2D90E06D
:10142000FC01E859FF4F0C9498208C2F807FCF70DF
:10143000882311F0C295C07F112399F0CC2309F4C1
:10144000C3C180E28D0F883010F0D11104C08C2F01
:101450000E94DD1203C08C2F0E94ED120E941D130A
:10146000B3C18D2F0E94A609CC2309F4D2C180E21A
:101470008D0F883010F0D11104C08C2F0E94E31220
:1014800003C08C2F0E94F3120E941D13C2C18C2F27
:10149000807FCF70803211F0C295C07FDD2319F0BC
:1014A000D130C9F022C0112371F0002341F0013086
:1014B00031F40E9457138C2B0E940D13AAC10E9475
:1014C00057138C2B3AC1002319F0013009F4A1C144
:1014D0000E94161318C0112321F0063008F099C19C
:1014E0000EC0053008F095C10EC0112351F0002345
:1014F00031F0F701858180FF67C18F7085838C2F64
:101500001CC1011172C18C2F1EC18C2F869586952E
:10151000837019F0813061F07CC1112321F08D2F8F
:101520009C2F937002C080E090E00E94D2077EC1A1
:10153000112321F08D2F9C2F937002C080E090E04A
:101540000E94E80773C11123F9F0D53F51F0D63F4F
:1015500071F0D43FA9F48091200290912102816022
:101560000BC08091200290912102826005C0809181
:1015700020029091210284609093210280932002A6
:101580008D2F0E949A151EC0D53F51F0D63F71F0A5
:10159000D43FA9F480912002909121028E7F0BC04C
:1015A00080912002909121028D7F05C080912002C0
:1015B000909121028B7F90932102809320028D2FA6
:1015C0000E9402160E94871631C18C2F837009F089
:1015D0004CC0111127C12D2F229526952770220F5F
:1015E000220F6D2F6F70862F90E0A0E0B0E04C01CD
:1015F0005D01022E04C0880C991CAA1CBB1C0A9415
:10160000D2F7D4FF12C08FE090E0A0E0B0E004C0B9
:10161000880F991FAA1FBB1F2A95D2F7BC01CD01C5
:10162000609570958095909503C060E070E0CB0167
:10163000C695C695C370C23051F080F468297929E7
:101640008A299B29C13071F00E94A210EBC0682941
:1016500079298A299B290E94B410E4C00E94A21013
:10166000C501B4010E949010DDC0112319F08C2F28
:10167000817001C08695882309F4D4C02D2F22954E
:1016800026952770220F220F6D2F6F70862F90E006
:10169000A0E0B0E04C015D01022E04C0880C991C52
:1016A000AA1CBB1C0A94D2F7D4FF12C08FE090E0B2
:1016B000A0E0B0E004C0880F991FAA1FBB1F2A95A5
:1016C000D2F7BC01CD01609570958095909503C0CF
:1016D00060E070E0CB01C695C695C370C23051F092
:1016E00080F4682979298A299B29C13071F00E94E8
:1016F000671198C0682979298A299B290E94791144
:1017000091C00E946711C501B4010E9455118AC0A1
:101710008D2F90E0FC01E05EF109E531F10508F064
:101720004FC0E858FF4F0C949820DF708C2F8F71BA
:10173000112331F00E94EE108D2F0E94D20969C052
:101740000E940F118D2F0E94D90963C0112341F00F
:10175000053008F05EC08C2F8F710E94341159C083
:10176000063008F056C0F7CF112339F08C2F8F7157
:101770000E94EE104EC01123C9F38C2F8F710E946E
:101780000F1147C0112329F08C2F8F710E94D9109F
:1017900040C00E94D4103DC0112349F0CF718C2F5E
:1017A0000E94EE1063E08C2F0E94A81232C081E0EC
:1017B0000E94B812023068F182E00E94B81229C07B
:1017C000112331F0002391F28D2F0E94F80821C0DF
:1017D000002399F2D93349F4FFEF23EF81E0F15070
:1017E00020408040E1F700C000008D2F0E94A60934
:1017F00010C04C2F4F706D2FC7010E94F7040E943C
:10180000011014C04C2F4F706D2FC7010E94FA04B5
:101810000DC098E0B91631F0B91640F086EF8B0D87
:10182000823020F40E94B0070E94F504DD20E1F030
:101830000E94791280FD18C0F70112820E94731273
:101840000E94EE10C7010E94400C0E947312DF91AB
:10185000CF911F910F91FF90EF90DF90BF90AF90CD
:101860009F908F900C940F11DF91CF911F910F914A
:10187000FF90EF90DF90BF90AF909F908F90089572
:101880000F931F93CF93DF93EC01988189812B8174
:101890003C81232B31F08F3F31F481E09F3F19F4DD
:1018A00003C081E001C080E080FD13C0CE010E9432
:1018B0007B03882371F0688179818A810E942D12CF
:1018C0008C010E948B110E947E10B801CE010E94F3
:1018D000E009DF91CF911F910F9108950E94FA12B4
:1018E0000E940A1380910001909101010E9403144B
:1018F0000E941D130E9429170E94871680E090E025
:101900000E94D20780E090E00C94E8070E94EA125F
:101910000C946E0C0E942212E92FE295EF704E2F6C
:1019200050E0FA013297EE30F105B0F4E357FF4F83
:101930000C949820803F91F018F4803E68F40EC01B
:10194000843F51F40BC0803E48F0813F29F406C02B
:1019500093FB882780F9089580E0089581E0089539
:10196000CF93DF9300D000D01F92CDB7DEB70F909A
:101970000F900F900F900F90DF91CF910895CF931C
:10198000DF9300D000D000D0CDB7DEB726960FB6DB
:10199000F894DEBF0FBECDBFDF91CF9108951F93A6
:1019A000CF93DF93C0915F0116E080916001C8176B
:1019B00099F0D0E01C9FF0011D9FF00D1124EF590C
:1019C000FE4F4081518162817381848195810E94A3
:1019D000BF0C2196C770E9CFDF91CF911F91089579
:1019E0004091910150919201609193017091940105
:1019F00080919501909196010C94BF0CCF938091AA
:101A0000960182958F7009F05FC0809193018823C1
:101A100009F45AC080915F01B09160017091910109
:101A2000A0919201409194015091950191E07F3FE6
:101A300009F090E0692FC6E08B1709F445C0411505
:101A4000510521F0AF3F21F020E003C021E001C0AB
:101A5000262F90E020FD35C0C89FF001C99FF00DF2
:101A60001124EF59FE4F21812A132BC02081271307
:101A700028C02281211125C02381348124173507F4
:101A800010F421503109241B350B283C3105C8F4D2
:101A9000209196012F7020612093960126E0289FC7
:101AA000F001299FF00D1124EA59FE4F80818F70BB
:101AB0008061808381E991E00E94400CCF910C9479
:101AC000CF0C01968770B8CFCF910895AF92BF9297
:101AD000CF92DF92EF92FF920F931F93CF93DF93FA
:101AE000CDB7DEB761970FB6F894DEBF0FBECDBF9E
:101AF0008C0185E0F801DE011D9601900D928A951A
:101B0000E1F7D8014C9111965C9111971296EC90E7
:101B10003091910160919201809194019091950191
:101B2000009731F06F3F31F421E03F3F19F403C0DB
:101B300021E001C020E0B22FB170BB2E20FD60C1BA
:101B4000F801C380D480A0909301AA2009F4EEC0CC
:101B500020919601C816D90628F0D601A81BB90B0A
:101B6000CD0104C0809590958C0D9D1DFF24F394AC
:101B7000883C910580F0F12C207F09F09CC07C2DE1
:101B8000D98AC88A6E2D89890E94B00C81E991E0BA
:101B90000E94400C2DC1822F807F09F054C0561343
:101BA00014C0431312C0FE2CE1100FC02F7020612F
:101BB000209396010E94F00C81E991E00E94400C74
:101BC00080919601F80185835CC1CD2831F05F3F9B
:101BD00031F481E04F3F19F403C081E001C080E09F
:101BE00080FD03C081E08E2502C080E090E0F82FE8
:101BF000F170FF2E80FF1CC080915F012091600179
:101C000036E0821709F41AC190E0389FF001399F3D
:101C1000F00D1124EF59FE4F6181561306C060810B
:101C2000461303C06281E61203C001968770E9CFB4
:101C3000FE2CEE2009F425C18091960181608093ED
:101C40009601F12C1EC1561309C0431307C0E110C1
:101C500005C080919601F8018583A4C04D875E87F9
:101C60008D859E850E948A0C882379F1EE2069F18A
:101C700020919601822F82958F7090E0029774F0E8
:101C8000809191019091920198878F831986DB86CC
:101C9000CA862C87CE0107960E94400C86E0F80188
:101CA000A1E9B1E001900D928A95E1F70E94FE0C46
:101CB0000E94F00C0DC0561771F04D875E878D8520
:101CC0009E850E948A0C81111AC0C8010E94400C96
:101CD000FF24F394D6C04313F0CFE110EECF8091F0
:101CE0009601F8018583C8010E94400C86E0E1E975
:101CF000F1E0DF011D928A95E9F7FA2CC2C0EE20CF
:101D000021F320919601822F82958F7090E00297A7
:101D10002CF280919101909192019A8389831B8288
:101D2000DD82CC822E83CE010196B6CFC816D906AD
:101D300028F0F601E81BF90BCF0104C080959095BF
:101D40008C0D9D1D883C910548F0F12C7C2DD98A85
:101D5000C88A6E2D89890E94B00C4AC0FE2CEE20E4
:101D600009F4B3CF561333C0431331C02091960109
:101D700020FD24C0822F82958F70482F50E041159E
:101D80005105E1F0D80115962C9315974F30510568
:101D900049F08F5F982F9295907F822F8F70892BBB
:101DA00015968C93C8010E94400C86E0F801A1E9C9
:101DB000B1E001900D928A95E1F73DC086E0F8010F
:101DC000A1E9B1E001900D928A95E1F75AC04D87E3
:101DD0005E878D859E850E948A0C81115FCF8091E0
:101DE0009601816080939601C8010E94400C49C011
:101DF000E1E9F1E086E0DF011D928A95E9F71BC079
:101E0000EE2009F462CF4D875E878D859E850E9406
:101E10008A0CF82E882309F458CF86E0F801A1E94E
:101E2000B1E001900D928A95E1F781E991E00E947D
:101E3000F2080E94FE0C0E94F00C23C04D875E87C2
:101E40008D859E850E942212292F22952F70223087
:101E500028F49F7039F0811105C00BC0243028F49C
:101E60009F7049F4805E883020F0C8010E94400CC9
:101E7000BF2CFB2C06C0D80115969C91907F91F742
:101E8000F8CF8F2D61960FB6F894DEBF0FBECDBF91
:101E9000DF91CF911F910F91FF90EF90DF90CF9046
:101EA000BF90AF9008951F93CF93DF93CDB7DEB768
:101EB0002C970FB6F894DEBF0FBECDBF4F83588767
:101EC00069877A878B879C87CE0107960E94660D6B
:101ED0008823D1F09F8188852A853B85232B31F08B
:101EE0008F3F31F481E09F3F19F403C081E001C0CE
:101EF00080E080FD47C04F81588569857A858B8554
:101F00009C850E94BF0C3EC086E0FE013796DE0134
:101F1000119601900D928A95E1F7FF81E8856A8517
:101F20007B856115710531F0EF3F31F481E0FF3FB2
:101F300019F403C081E001C080E080FD23C020913E
:101F4000600130E0C90101968770992740915F01D7
:101F500050E084179507F1F1F983EA837D836C8360
:101F600096E0929FD001939FB00D1124AF59BE4FC0
:101F7000FE01319601900D929A95E1F780936001F0
:101F80000E94CF0C16E080915F019091600189174B
:101F900071F1189FC00111248F599E4F0E94660D48
:101FA000882329F1E0915F011E9FF0011124EF5970
:101FB000FE4F4081518162817381848195810E94AD
:101FC000BF0C80915F0190E0019687709927809304
:101FD0005F01D9CF0E94860C1092600110925F01C0
:101FE000E1E9F1E086E0DF011D928A95E9F72C96A0
:101FF0000FB6F894DEBF0FBECDBFDF91CF911F911A
:102000000895EF92FF920F931F93CF93DF938C016C
:10201000892B09F46CC0F12CEE24E394E80121969D
:10202000F8018491843740F4843008F051C0813045
:1020300081F0823019F15BC0853709F444C0A8F102
:102040009CE7980F903708F052C08F770E94A6093E
:1020500041C00E5F1F4FFE01849190E2980F9830AF
:1020600050F48770FE2D01C0FF0F8A95EAF78F2F7D
:102070000E94FD1214C00E94F8082DC00E5F1F4F71
:10208000FE01849190E2980F983060F48770FE2DE5
:1020900001C0FF0F8A95EAF78F2F0E9403130E9459
:1020A0001D1319C00E94A60916C00E5F1F4FFE0126
:1020B000C491CC2381F08FEC97E00197F1F700C039
:1020C0000000C150F6CF0E5F1F4FFE01F49003C019
:1020D0000E94F8088E018F2D882309F49FCFEFEC22
:1020E000F7E03197F1F700C000008150F5CFDF91A4
:1020F000CF911F910F91FF90EF900895089508954B
:102100000C947F100E9480106093C3017093C401EF
:102110008093C5019093C6010C946E0C0C948210B0
:102120000F931F930091C3011091C4012091C50129
:102130003091C601602B712B822B932B1F910F9135
:102140000C9482100F931F930091C3011091C4014E
:102150002091C5013091C60160237123822393230E
:102160001F910F910C9482100F931F930091C30144
:102170001091C4012091C5013091C60160277127DB
:10218000822793271F910F910C9482100C947F103B
:102190000E94C6106093BF017093C0018093C1017B
:1021A0009093C2010C946E0C60E070E0CB010C9433
:1021B000C8100F931F9341E050E060E070E08A0187
:1021C0009B0104C0000F111F221F331F8A95D2F7F5
:1021D000C901B8011F910F910C94C8100F931F9360
:1021E00041E050E060E070E004C0440F551F661FFE
:1021F000771F8A95D2F78091BF019091C001A0917D
:10220000C101B091C2018A019B01082B192B2A2B15
:102210003B2BC901B8011F910F910C94C8100F936B
:102220001F9341E050E060E070E004C0440F551F90
:10223000661F771F8A95D2F74095509560957095E7
:102240008091BF019091C001A091C101B091C201E4
:102250008A019B01082319232A233B23C901B801C2
:102260001F910F910C94C8100F931F9341E050E001
:1022700060E070E004C0440F551F661F771F8A9509
:10228000D2F78091BF019091C001A091C101B0919E
:10229000C2018A019B01082719272A273B27C90168
:1022A000B8011F910F910C94C8100F931F930091C8
:1022B000BF011091C0012091C1013091C201602B7A
:1022C000712B822B932B1F910F910C94C8100F939D
:1022D0001F930091BF011091C0012091C101309165
:1022E000C20160237123822393231F910F910C94C9
:1022F000C8100F931F930091BF011091C00120914E
:10230000C1013091C20160277127822793271F9155
:102310000F910C94C810089528E0929F800D11240D
:10232000E82FE695E695E695877051E001C0550FD8
:102330008A95EAF785E0E89FF0011124E956FE4FFF
:1023400020E030E070E04081CB01022E02C0969583
:1023500087950A94E2F781708195842785238427E5
:1023600081932F5F3F4F2530310569F7089528E0AD
:10237000929F800D1124682F669566956695982F1B
:10238000977085E0689FB001112440E050E080E044
:10239000FB01E40FF51FE956FE4F208130E0092EC6
:1023A00002C0369527950A94E2F721703327042E50
:1023B00001C0220F0A94EAF7822B4F5F5F4F45302E
:1023C000510531F70895CF92DF92EF92FF920F936C
:1023D0001F93CF93DF938C01C090BF01D090C001B9
:1023E000E090C101F090C2018091C3019091C401BD
:1023F000A091C501B091C601C82AD92AEA2AFB2AB0
:10240000CFE1D0E0D701C6010C2E04C0B695A79548
:10241000979587950A94D2F780FD04C0219790F78D
:1024200080E007C0B8018C2F0E9418050197B1F316
:102430008C2FDF91CF911F910F91FF90EF90DF9044
:10244000CF900895CF93DF93EC010E94E311BE017A
:102450000E941805DF91CF9108951F93CF93DF93CA
:10246000EB0190915E01992321F0CB010E94221291
:1024700013C0882349F0CB010E94E311182F682F65
:10248000CE010E948C1104C0CB010E94B711182FFD
:10249000BE01812F0E941805DF91CF911F910895F1
:1024A0000E9492142091CA013091CB0182179307A8
:1024B00050F00E9492142091CA013091CB01821BEE
:1024C000930B9C010AC00E9492142091CA01309182
:1024D000CB0120953095280F391F81E0243F3140F2
:1024E00008F480E008958091C901859585958595CA
:1024F00008958091C901877008950E9492142091D7
:10250000C7013091C80182179307A8F00E94921466
:102510002091C7013091C801821B930B843F9140E9
:1025200010F480E013C08091C90182FB882780F9F4
:1025300091E089270BC00E9492142091C70130912D
:10254000C80120953095820F931FE8CF81700895C0
:1025500098E0899F90011124262B2093C9010E94A5
:10256000EE100E9492149093C8018093C7010895C1
:102570002091C901809582238093C901982F97707B
:1025800089F430E0482F082E000C550B241735072E
:1025900049F08595859585950E940F111092C80187
:1025A0001092C70108959091C901977081E009F4D4
:1025B00080E008958091EF0108959091EF01892BBB
:1025C0008093EF01089580959091EF018923809386
:1025D000EF0108951092EF0108959091EE01892B7B
:1025E0008093EE01089580959091EE018923809368
:1025F000EE0108951092EE0108959091ED01892B5E
:102600008093ED01089580959091ED018923809349
:10261000ED0108951092ED0108958093CC010E9480
:1026200092149093CB018093CA0108951092CC012B
:102630001092CB011092CA010895E0910001F0912F
:1026400001018091EF018083E0910001F09101018F
:1026500090818091EE01892B8083E0910001F091BF
:10266000010190818091ED01892B80838091CC01C3
:102670008823B9F00E94501281110E941613E09134
:102680000001F091010190818091CC01892B808320
:1026900080910001909101010E94901381110E948C
:1026A000161380910001909101010C94BC07809158
:1026B000CC0108956DEE7EEF80E090E00E94D22084
:1026C00060E082E090E00E94C02060E083E090E063
:1026D0000E94C02060E084E090E00E94C02060E0A2
:1026E00085E090E00C94C02080E090E00E94BA2049
:1026F00021E08D3E9E4F09F020E0822F089582E078
:1027000090E00C94B22083E090E00C94B22084E03E
:1027100090E00C94B220682F84E090E00C94C020EC
:10272000FC0131969C01205E3F4F80E09191911118
:102730008F5FE217F307D1F708959C01FC013296F1
:102740009FEF80E04191461789F09F3F19F44111B6
:1027500001C0982F8F5F8E31A9F79F3F39F0F901A3
:10276000E90FF11D97FDFA956283089508959C0184
:10277000225E3F4FFC014281461301C01282019646
:1027800082179307B9F70895262F26952695269543
:102790002F3169F0FC01E20FF11D677021E030E09C
:1027A00001C0220F6A95EAF78181282B21830895C1
:1027B000262F2695269526952F3171F0FC01E20FE4
:1027C000F11D677021E030E001C0220F6A95EAF741
:1027D00020958181282321830895209112012223AD
:1027E00029F02091260227FD0C94C4130C949D130C
:1027F00020911201222329F02091260227FD0C941A
:10280000D8130C94B713FC01319680961192E817F7
:10281000F907E1F7089508950C940B140C940B1428
:10282000CF930E940E140E94CD020E940C14C0E0AF
:102830008C2F0E941D03811104C0CF5FC830C1F7E7
:1028400001C081E0CF9108950C940B140C942414D2
:1028500080912C02843049F11092F10120E488E14A
:1028600090E00FB6F894A895809360000FBE209377
:10287000600080E00E94F5040E94261483B7817FE7
:10288000846083BF83B7816083BF7894889583B762
:102890008E7F83BF0FB6F894A89580916000886101
:1028A00080936000109260000FBE08950C940B148A
:1028B0000E94860C0E94B0070E94F5040C945614E6
:1028C0001F920F920FB60F9211248F939F93AF9385
:1028D000BF938091F101811113C0809122029091E8
:1028E0002302A0912402B09125024196A11DB11DA1
:1028F0008093220290932302A0932402B093250296
:10290000BF91AF919F918F910F900FBE0F901F902D
:10291000189582E084BD93E095BD9DE797BD8093B7
:102920006E0008952FB7F8948091220290912302AF
:10293000A0912402B09125022FBF0895CF92DF927B
:10294000EF92FF920F931F932FB7F89440912202BA
:102950005091230260912402709125022FBF6A01D9
:102960007B01EE24FF248C0120E030E0C016D1066C
:10297000E206F30610F4415051099A01281B390B65
:10298000C9011F910F91FF90EF90DF90CF900895B4
:1029900078941F920F920FB60F9211248F939F93EA
:1029A000AF93BF938091220290912302A0912402C1
:1029B000B09125020196A11DB11D80932202909332
:1029C0002302A0932402B0932502BF91AF919F915F
:1029D0008F910F900FBE0F901F90189587E797E784
:1029E00090930108809300089AE088E10FB6F8946C
:1029F000A895809360000FBE90936000FFCF0E9467
:102A00007413811102C00E945A130E947F13809395
:102A1000F0010E94871390E0909327028093260292
:102A20000E948313682F70E080E090E00C948E1079
:102A30008091F40180FF0BC06091050185E0689FE3
:102A4000B001112475956795759567952BC081FF29
:102A500009C06091050185E0689FB001112475955A
:102A6000679520C082FF07C06091050185E0689FDF
:102A7000B001112417C09091F5019923D1F0609114
:102A80000401961788F72091050185E0289F9001A1
:102A90001124929FA001939F500D112470E0CA0150
:102AA0000E9484206038710540F46115710519F4A5
:102AB00006C065E070E0862F08958FE7089581E0F5
:102AC00008958091F40180FF08C06091030170E0D7
:102AD000759567957595679521C081FF06C06091D2
:102AE000030170E07595679519C082FF04C060917D
:102AF000030170E010C09091F501992399F0609165
:102B000002019617A0F780910301899FC00111244B
:102B100070E00E9484206038710540F461157105F1
:102B200019F406C061E070E0862F08958FE70895DC
:102B300081E00895803F21F40E941815819504C01A
:102B4000813F29F40E9418158093F8010895823F6F
:102B500021F40E941815819504C0833F29F40E9436
:102B600018158093F7010895893F19F40E946115A3
:102B700005C08A3F31F40E94611581958093F90167
:102B800008958B3F21F40E946115819504C08C3F0C
:102B900029F40E9461158093FA010895843F21F47D
:102BA0008091F601816017C0853F21F48091F60184
:102BB000826011C0863F21F48091F60184600BC0D1
:102BC000873F21F48091F601886005C0883F31F489
:102BD0008091F60180618093F60108958D3F21F484
:102BE0008091F40181600BC08E3F21F48091F4014B
:102BF000826005C08F3F29F48091F4018460809346
:102C0000F4010895803F39F48091F80187FF6CC08A
:102C10001092F80169C0813F29F48091F8011816DB
:102C2000BCF362C09091F701823F29F497FF5CC02A
:102C30001092F70159C0833F19F41916CCF354C010
:102C4000893F41F48091F90118160CF04DC01092A3
:102C5000F9014AC08A3F29F48091F90187FF44C0F5
:102C6000F6CF8B3F39F48091FA0187FF3DC0109277
:102C7000FA013AC08C3F29F48091FA011816BCF38E
:102C800033C0843F21F48091F6018E7F17C0853FC9
:102C900021F48091F6018D7F11C0863F21F480914F
:102CA000F6018B7F0BC0873F21F48091F601877F6F
:102CB00005C0883F31F48091F6018F7E8093F60144
:102CC00013C08D3F21F48091F4018E7F0BC08E3FA5
:102CD00021F48091F4018D7F05C08F3F29F480910C
:102CE000F4018B7F8093F4018091F70181110EC074
:102CF0008091F80181110AC08091F901811106C00B
:102D00008091FA01811102C01092F501089586EFB9
:102D100091E00E94C7070E9492149093F301809360
:102D2000F20108951F93CF93DF938091F201909168
:102D3000F3010E949E14AC019091F501992321F0BA
:102D40002091060130E006C0209107018AE0289F0B
:102D5000900111244217530708F477C08091F701BE
:102D6000C091F801D091F9011091FA01811107C0C9
:102D7000C11167C0D11165C0111163C066C09F3F0A
:102D800019F09F5F9093F501181624F40E9418150E
:102D90008093F7018091F70187FF05C00E94181505
:102DA00081958093F7011C1624F40E9418158093D6
:102DB000F8018091F80187FF05C00E9418158195E0
:102DC0008093F8013091F7013323C1F02091F8018D
:102DD0002223A1F045EB3403C0011124892F911166
:102DE00001C081E08093F70135EB2303C00111247A
:102DF000892F911101C081E08093F8011D1624F400
:102E00000E9461158093F9018091F90187FF05C047
:102E10000E94611581958093F901111624F40E9496
:102E200061158093FA018091FA0187FF05C00E9425
:102E3000611581958093FA01DF91CF911F910C94D8
:102E400087169F3F09F09DCFAECFDF91CF911F91A5
:102E50000895E6EFF1E085E0DF011D928A95E9F73C
:102E60001092F5011092F4010895833081F128F455
:102E7000813059F08230D1F00895853009F449C08D
:102E8000B8F1863009F456C0089580910701262FC5
:102E900030E0280F311D2F3F310524F4680F609377
:102EA000070108958FEF809307010895809106012F
:102EB000262F30E0280F311D2F3F310524F4680FF5
:102EC0006093060108958FEF809306010895809125
:102ED0000501262F30E0280F311D2F3F310524F446
:102EE000680F6093050108958FEF809305010895A1
:102EF00080910401262F30E0280F311D2F3F31052E
:102F000024F4680F6093040108958FEF8093040107
:102F1000089580910301262F30E0280F311D2F3FA7
:102F2000310524F4680F6093030108958FEF8093B7
:102F30000301089580910201262F30E0280F311DF2
:102F40002F3F310524F4680F6093020108958FEF3D
:102F5000809302010895833011F128F4813049F003
:102F6000823091F00895853081F120F18630C1F1F1
:102F7000089580910701681720F4861B809307014C
:102F8000089510920701089580910601681720F4B2
:102F9000861B809306010895109206010895809182
:102FA0000501681720F4861B80930501089510928F
:102FB0000501089580910401681720F4861B809311
:102FC0000401089510920401089580910301681787
:102FD00020F4861B80930301089510920301089545
:102FE00080910201681720F4861B809302010895E6
:102FF0001092020108950F931F9341E050E060E0AA
:1030000070E08A019B0104C0000F111F221F331FB3
:103010008A95D2F7C901B8010E948E101F910F91B5
:103020000C94860C873208F04DC08E3108F08FC0AA
:10303000803109F479C008F5873009F467C068F475
:10304000863009F08BC08091F001817F8E7F809364
:10305000F00181E08093FC0108958B3009F47AC07F
:103060008E3009F07BC08091F00182FB222720F98D
:1030700091E0922790FB82F960C0863109F46AC022
:1030800088F4813109F06AC00E94860C8091260282
:1030900087FB222720F991E0922790FB87F9809304
:1030A000260258C0893109F455C08B3109F056C049
:1030B0008091F00181FB222720F991E0922790FB7B
:1030C00081F93BC0883309F445C048F4893209F4DA
:1030D00043C0853309F440C08732F1F13FC08334E7
:1030E000D9F120F48A33D0F1895332C08834B1F554
:1030F0000E94860C2FEF89E698E121508040904095
:10310000E1F700C000000E94EE1424C08091F0019D
:10311000982F9095917090FB80F98093F001911118
:1031200019C0897F877F10C08091F00183FB22271F
:1031300020F991E0922790FB83F98093F001992385
:1031400049F08091F00181608093F00103C08D51BE
:103150000E94FB1781E0089580E0FACF80E0089597
:1031600080E008950C94B0188E518A3030F4E82F26
:10317000F0E0ED5EFE4F8081089580E00895CF93EA
:10318000C82F8091FC01813069F018F08230C9F1BC
:1031900083C0E0910001F09101018081823209F049
:1031A0007DC007C0E0910001F09101018081823271
:1031B00061F48C2F0E94B218811104C08C2F0E94E0
:1031C00012181DC081E090E01AC08C2F0E94B01828
:1031D000811114C0C43179F048F4CB3079F0C0319A
:1031E00009F060C082E08093FC0108C0C93219F088
:1031F000C83321F057C01092FC0154C081E08170A7
:1032000053C0C93289F118F5C43171F1B0F4C73037
:1032100009F046C08EE18093070182E380930601A6
:103220008AE08093050184E18093040188E0809323
:10323000030188E28093020133C082EE8C0F863056
:1032400078F58C2F0E94B4188093FB0129C0CE34EE
:10325000E9F020F4CB3421F56AE013C0C13579F0F0
:10326000C235F1F461E00DC08091FB01882319F0B3
:103270001092FB0115C081E08093FC0115C061E054
:1032800006C08091FB010E9435170AC06AE0809158
:10329000FB010E94AB1704C01092FC0180E004C047
:1032A00081E002C080E0ABCFCF91089580911D02F4
:1032B00008950F931F93CF93DF9300D01F92CDB744
:1032C000DEB78C010E94CD1B823011F0843019F5DD
:1032D00083E089831B830A838093E9008FEF9091B9
:1032E000E800815095FD06C09AE69A95F1F700C076
:1032F0008111F5CF8091E80085FF0DC040E050E0DE
:1033000063E070E0CE0101960E94E91B8091E80025
:103310008E778093E8000F900F900F90DF91CF9100
:103320001F910F910895CF93DF9300D01F92CDB7D7
:10333000DEB720912C02243031F522E02983805819
:1033400091099B838A8383E08093E9008FEF9091BA
:10335000E800815095FD06C09AE69A95F1F700C005
:103360008111F5CF8091E80085FF0DC040E050E06D
:1033700063E070E0CE0101960E94E91B8091E800B5
:103380008E778093E8000F900F900F90DF91CF9190
:103390000895CF93DF93EC010E94CD1B823011F092
:1033A0008430F9F482E08093E9008FEF9091E80097
:1033B000815095FD06C09AE69A95F1F700C08111FB
:1033C000F5CF8091E80085FF0CC040E050E065E05B
:1033D00070E0CE010E94E91B8091E8008E77809317
:1033E000E800DF91CF910895CF93DF93EC010E9425
:1033F000CD1B823019F0843009F047C08091120152
:103400008823E1F08091260287FF18C084E0809332
:10341000E9008FEF9091E800815095FD06C09AE099
:103420009A95F1F700C08111F5CF8091E80085FFF2
:103430002CC040E050E060E270E017C081E0809373
:10344000E9008FEF9091E800815095FD06C09AE663
:103450009A95F1F700C08111F5CF8091E80085FFC2
:1034600014C040E050E068E070E0CE010E94E91B2B
:103470008091E8008E778093E80080E2FE01ADEF56
:10348000B1E001900D928A95E1F7DF91CF91089517
:1034900080912B02811109C00E947A1D0E94D71DC4
:1034A0008091E20084608093E200089510922B02E4
:1034B0000895089508950C94581442E061EC81E059
:1034C0000E94F31C42E061EC82E00E94F31C42E0A7
:1034D00061EC83E00E94F31C42E261EC84E00C9416
:1034E000F31C80912E02833009F455C030F48130F2
:1034F00071F0823009F48EC008958A3009F47AC0E0
:103500008B3009F460C0893009F09CC020C08091E4
:103510002D02813A09F096C08091E800877F809360
:10352000E8008091310290913202892B21F460E20F
:103530008DEF91E003C060E080E090E070E00E94D9
:10354000341C8091E8008B778093E8000895809187
:103550002D02813209F076C08091310290913202C1
:10356000009719F0039709F06DC08091E800877FFC
:103570008093E8008091E80082FD05C080912C02D4
:103580008111F8CF5FC08091F10080931D0280917E
:10359000E8008B7753C080912D02813A09F052C028
:1035A0008091310290913202892B09F04BC08091B9
:1035B000E800877F8093E8008091E80080FFFCCFDF
:1035C0008091120136C080912D028132D9F580910F
:1035D000310290913202892BA9F58091E800877F12
:1035E0008093E8000E94281D80912F028093120191
:1035F0000C94860C80912D02813221F58091E80097
:10360000877F8093E8000E94281D8091300280937C
:103610001E02089580912D02813AA1F48091E80064
:10362000877F8093E8008091E80080FFFCCF809145
:103630001E028093F1008091E8008E778093E8006D
:103640000C94281D089584B7877F84BF0FB6F89423
:10365000A89580916000886180936000109260005E
:103660000FBE80E880936100109261000E94FF0706
:103670000E947A1D0E94D71D8091E2008460809391
:10368000E20078940E9469200E94030888E091E09B
:103690000E94AB0780912C02853069F40E942814A7
:1036A00080912A028823B1F30E941014882391F399
:1036B0000E94D41BEFCF0E940F08ECCF0C94601B2C
:1036C000292F332723303105C9F060F4213031052B
:1036D00081F02230310509F047C08DE690E022E804
:1036E00033E046C02132310511F12232310561F15A
:1036F0003BC082E190E02FEE33E03AC09927813061
:10370000910561F040F08230910559F0039761F521
:10371000EAE4F3E008C0EEE7F3E005C0EEE5F3E02D
:1037200002C0E0E5F3E0849190E09F0121C06430A5
:103730007105D0F4660F771FFB01E75DFE4F208116
:10374000318189E090E014C06430710568F4FB01B8
:10375000EE0FFF1FEF5DFE4F20813181FB01E35E25
:10376000FE4F808190E004C080E090E020E030E0F7
:10377000FA013183208308950895CF93C82F0E94C2
:10378000BC1BC0931F02CF91089580912C028430FE
:1037900011F081E0089582E0089580911F02811167
:1037A00002C00C94C51B089519BC82E089BD09B400
:1037B00000FEFDCF8091D8008F7D8093D80080914E
:1037C000E00082608093E0008091E00081FDFCCF0A
:1037D0000895CF92DF92EF92FF920F931F93CF93B2
:1037E000DF93EC018B017A010E94471D811133C0E8
:1037F000E114F10439F0F70180819181081B190B64
:10380000C80FD91FC12CD12C0115110519F18091B8
:10381000E80085FD16C08091E8008E778093E8006F
:10382000E114F10449F0F70180819181C80ED91E9D
:10383000D182C08285E00FC00E94471D882321F3FA
:103840000AC089918093F10001501109FFEFCF1A4E
:10385000DF0ADACF80E0DF91CF911F910F91FF90C7
:10386000EF90DF90CF900895209133023091340291
:103870002617370748F06115710539F42091E800E3
:103880002E772093E80001C0B901FC0120E061150A
:10389000710579F180912C028823F1F18530F1F1E5
:1038A0008091E80083FD3CC08091E80082FD2EC03D
:1038B0008091E80080FFEBCF2091F3008091F2002F
:1038C00090E0922B6115710551F08830910538F424
:1038D00021912093F100615071090196F3CF21E00D
:1038E000089709F020E08091E8008E778093E80047
:1038F000CECF2111CFCF0AC080912C02882361F056
:10390000853061F08091E80083FD0AC08091E80075
:1039100082FFF2CF80E0089582E0089583E0089569
:1039200081E0089520913302309134022617370741
:1039300048F06115710539F42091E8002E77209345
:10394000E80001C0B901FC0120E06115710591F1A9
:1039500080912C02882309F440C0853009F43FC0CF
:103960008091E80083FD3DC08091E80082FD2FC07A
:103970008091E80080FFE9CF2091F3008091F20070
:1039800090E0922B6115710559F08830910540F453
:1039900024912093F1003196615071090196F2CF84
:1039A00021E0089709F020E08091E8008E7780936D
:1039B000E800CBCF2111CCCF0AC080912C02882304
:1039C00061F0853061F08091E80083FD0AC080914C
:1039D000E80082FFF2CF80E0089582E0089583E05E
:1039E000089581E00895982F973068F59093E90045
:1039F000981739F07091EC002091ED005091F00093
:103A000003C0242F762F50E021FD02C09F5FECCF32
:103A10003091EB003E7F3093EB003091ED003D7F25
:103A20003093ED003091EB0031603093EB007093F8
:103A3000EC002093ED005093F0002091EE0027FD64
:103A4000E5CF80E008958F708093E90081E00895CC
:103A500080912D0287FF11C08091E80082FD05C092
:103A600080912C028111F8CF11C08091E8008B77F2
:103A70000BC080912C02882349F08091E80080FFE0
:103A8000F8CF8091E8008E778093E8000895209128
:103A9000E4003091E50095E64091EC00842F8170C0
:103AA00040FF23C08091E80080FD1DC080912C0262
:103AB000882399F0853099F08091EB0085FD11C045
:103AC0004091E4005091E5002417350729F3915007
:103AD00011F09A01E1CF84E0089582E0089583E037
:103AE000089581E0089580E008954091E80042FF44
:103AF000DDCF08950E94E81D0E94F01DE0EEF0E089
:103B0000808181608083E8EDF0E080818F77808321
:103B100019BCA7EDB0E08C918E7F8C9380818F7E55
:103B2000808310922B0208950F931F93CF93DF93FE
:103B30000E94E81D0E94F01DC8EDD0E088818F77BB
:103B4000888388818068888388818F7D888319BC79
:103B500010922C021092280210922A02109229022E
:103B600000EE10E0F80180818B7F80838881816086
:103B7000888342E060E080E00E94F31CE1EEF0E028
:103B800080818E7F8083E2EEF0E08081816080839F
:103B9000808188608083F80180818E7F8083888126
:103BA00080618883DF91CF911F910F910895E8ED97
:103BB000F0E080818F7E8083E7EDF0E0808181609E
:103BC000808384E082BF81E080932B020C94941D5B
:103BD000E8EDF0E080818E7F80831092E20008950E
:103BE0001092DA001092E10008951F920F920FB622
:103BF0000F9211242F933F934F935F936F937F9373
:103C00008F939F93AF93BF93EF93FF938091E100C6
:103C100082FF0BC08091E20082FF07C08091E1002B
:103C20008B7F8093E1000E9468208091DA0080FF02
:103C30001DC08091D80080FF19C08091DA008E7F6E
:103C40008093DA008091D90019BC80FF0BC082E01C
:103C500089BD09B400FEFDCF81E080932C020E9453
:103C6000481A04C010922C020E94561A8091E1005A
:103C700080FF19C08091E20080FF15C08091E200B2
:103C80008E7F8093E2008091E20080618093E20069
:103C90008091D80080628093D80019BC85E0809321
:103CA0002C020E945A1A8091E10084FF2FC080915B
:103CB000E20084FF2BC019BC82E089BD09B400FE7C
:103CC000FDCF8091D8008F7D8093D8008091E10056
:103CD0008F7E8093E1008091E2008F7E8093E200EE
:103CE0008091E20081608093E20080912802882325
:103CF00011F084E007C08091E30087FD02C081E0FD
:103D000001C083E080932C020E945B1A8091E10045
:103D100083FF29C08091E20083FF25C08091E100EC
:103D2000877F8093E10082E080932C02109228022A
:103D30008091E1008E7F8093E1008091E2008E7F90
:103D40008093E2008091E20080618093E20042E093
:103D500060E080E00E94F31C8091F0008860809316
:103D6000F0000E94591AFF91EF91BF91AF919F917E
:103D70008F917F916F915F914F913F912F910F9014
:103D80000FBE0F901F9018951F920F920FB60F92B3
:103D900011242F933F934F935F936F937F938F9350
:103DA0009F93AF93BF93CF93DF93EF93FF93C09114
:103DB000E900CF708091EC00D82FD17080FDD0E861
:103DC0001092E9008091F000877F8093F000789452
:103DD0000E94081F1092E9008091F0008860809393
:103DE000F000CD2BCF70C093E900FF91EF91DF91F0
:103DF000CF91BF91AF919F918F917F916F915F9183
:103E00004F913F912F910F900FBE0F901F901895DB
:103E10001F93CF93DF93CDB7DEB7AA970FB6F89471
:103E2000DEBF0FBECDBFEDE2F2E08091F1008193E5
:103E300022E0E533F207C9F70E94711A8091E80089
:103E400083FF2EC180912D0290912E02492F50E0C8
:103E50004A30510508F024C1FA01E556FF4F0C9491
:103E60009820803821F0823809F01AC108C080916A
:103E7000290290912A02992389F082600FC08091D3
:103E800031028F70873008F00BC18093E900809178
:103E9000EB0085FB882780F91092E9009091E800FB
:103EA000977F9093E8008093F1001092F100D1C0C9
:103EB000282F2D7F09F0F4C0882319F0823061F09B
:103EC000EFC080912F02813009F0EAC0933009F0F1
:103ED00080E080932A022EC080912F0281112AC097
:103EE000809131028F702FEF280F263008F0D8C054
:103EF0008093E9002091EB0020FF1CC0933021F457
:103F00008091EB00806214C09091EB0090619093DF
:103F1000EB0021E030E0A90102C0440F551F8A9553
:103F2000E2F74093EA001092EA008091EB0088608B
:103F30008093EB001092E9008091E800877F8093E6
:103F4000E8000E94281DACC08111AAC010912F0268
:103F50001F778091E3008078812B8093E30080912C
:103F6000E800877F8093E8000E94281D8091E80088
:103F700080FFFCCF8091E30080688093E300111103
:103F800002C082E001C083E080932C0289C0805887
:103F9000823008F085C080912F02909130028C3DD4
:103FA00053E0950779F583E08A838AE289834FB7E6
:103FB000F894DE01139620E03EE051E2E32FF0E0BA
:103FC00050935700E49120FF03C0E295EF703F5FEC
:103FD000EF708E2F90E0EA3010F0C79601C0C096C7
:103FE0008D939D932F5F243149F74FBF8091E80057
:103FF000877F8093E8006AE270E0CE0101960E941C
:10400000341C16C06091310270913202AE014F5FD4
:104010005F4F0E945E1BBC01892B09F441C0909147
:10402000E800977F9093E80089819A810E94921C12
:104030008091E8008B778093E80032C0803881F56A
:104040008091E800877F8093E80080912802809328
:10405000F1008091E8008E7772CF811121C08091AC
:104060002F029091300299270297D4F48091E800B2
:10407000877F8093E80080912F02809328020E941E
:10408000281D80912802811106C08091E30087FDE0
:1040900002C081E001C084E080932C020E945D1A7E
:1040A0008091E80083FF0AC08091E800877F8093B9
:1040B000E8008091EB0080628093EB00AA960FB637
:1040C000F894DEBF0FBECDBFDF91CF911F91089551
:1040D0000895CF9380912C028823A1F0C091E9002C
:1040E000CF709091EC00892F817090FD80E8C82BF3
:1040F0001092E9008091E80083FD0E94081FCF70B4
:10410000C093E900CF91089597FB072E16F4009411
:1041100007D077FD09D00E949E2007FC05D03EF411
:10412000909581959F4F0895709561957F4F089563
:10413000EE0FFF1F0590F491E02D0994AA1BBB1B05
:1041400051E107C0AA1FBB1FA617B70710F0A61B97
:10415000B70B881F991F5A95A9F780959095BC01B8
:10416000CD010895F999FECF92BD81BDF89A9927A6
:1041700080B50895A8E1B0E042E050E00C94DA2068
:10418000262FF999FECF92BD81BDF89A019700B410
:10419000021639F01FBA20BD0FB6F894FA9AF99AB0
:1041A0000FBE08950196272F0E94C1200C94C020B5
:1041B000DC01CB01FC01F999FECF06C0F2BDE1BDE7
:1041C000F89A319600B40D9241505040B8F70895D6
:0441D000F894FFCF91
:1041D400CD012808140A321E5619F419C919931965
:1041E40059190101020304050607080900404D3668
:1041F40039BD0470043A0401049403AD03C603DF1B
:024204000300B5
:00000001FF
